:020000040800F2
:10000000A83500206D6B0008416A0008436A0008AB
:10001000456A0008476A0008496A000800000000B5
:100020000000000000000000000000004F61000818
:100030004B6A000800000000096100084D6A0008D2
:10004000956B0008996B00089D6B0008A16B000878
:10005000A56B0008A96B0008AD6B0008B16B000828
:10006000B56B0008B96B0008BD6B0008C16B0008D8
:10007000C56B0008656A0008C96B0008CD6B0008F5
:10008000D16B0008D56B0008D96B0008DD6B000848
:100090006B6A0008E16B0008E56B0008E96B00087B
:1000A000ED6B0008F16B0008F56B0008F96B0008B8
:1000B000FD6B0008016C0008056C0008096C000865
:1000C0000D6C0008116C0008156C0008196C000814
:1000D0001D6C0008216C0008256C0008296C0008C4
:1000E0002D6C0008316C0008356C00082DE9F14FCB
:1000F000B0B0924604910DF142013A9A2B91994683
:100100004A7000200AE01AF8011B0498309A9047C0
:100110000028049000F06A860D98401C0D909AF813
:10012000000050B12528EED100210022079108924D
:1001300009910A920B910C9204E00D9800F058BEC0
:1001400041F001011AF8010F2028F9D023280CD022
:100150002B2804D02D2805D0302809D00BE041F001
:100160000201EFE741F00401ECE741F00801E9E7A3
:1001700041F01001E6E72A280FD1D9F8002052F803
:10018000040BC9F8002000280F9003D540420F90BF
:1001900041F004010AF1010A14E00F92DFF8583C23
:1001A0000AE00F98984205DA00EB800402EB440263
:1001B000303A0F920AF1010A9AF80020A2F13000B9
:1001C0000A28EED39AF800002E2803D04FF0FF3211
:1001D0000E9229E01AF8010F2A2809D1D9F8000057
:1001E00050F8042BC9F800000E920AF1010A1BE036
:1001F0002D280CBF0AF1010A002000220E92DFF820
:10020000F84B0BE040B90E9AA24205DA02EB8205E8
:1002100003EB4503303B0E930AF1010A9AF80030D4
:10022000A3F130020A2AEDD3ADF840100FF6CC301E
:100230009AF8001000F0F6FE08B11AF8010B8DF8DC
:1002400042009DF84200682805D19AF8000068280D
:100250000CD1622106E06C2804BF9AF800006C28DB
:1002600004D171218DF842100AF1010A12A80690FA
:100270001AF801BBBBF125012CD01C3900F0D68146
:10028000091F022940F2D281133900F0E1840939B3
:1002900000F0CC81891E00F07685491E00F0238590
:1002A000491E022940F2C281091F00F01C85491F26
:1002B00000F03181491E00F0CB84491E00F0D88047
:1002C000C91E0DD0891E00F0C384C91E00F0C08471
:1002D00000F064BD25238DF84830012100F069BD90
:1002E000D9F8000050F8044BC9F80000002C059420
:1002F00040F0AB802B994878002800F0A1804FF0A7
:10030000FF340FF6003000F099FE201A40F06E85A1
:1003100000F050BD01236A4602A9304600F042FEBB
:10032000002840F063856D1EF4D13096079D12AF12
:1003300075B1309E17F8012B02A9304600F022FE5D
:10034000002801D46D1EF5D10028309640F04E856E
:100350000A9D3020002D8DF800000CDD309E012319
:100360006A4602A9304600F01DFE002840F03E8596
:100370006D1EF4D13096059F089D75B1309E17F81B
:10038000012B02A9304600F0FDFD002801D46D1EAE
:10039000F5D10028309640F029850B9D3020002DA6
:1003A0008DF800000CDD309E01236A4602A930461C
:1003B00000F0F8FD002840F019856D1EF4D130964C
:1003C00005980899099D471875B1309E17F8012BBB
:1003D00002A9304600F0D6FD002801D46D1EF5D1EB
:1003E0000028309640F002850C9D3020002D8DF8BD
:1003F00000000CDD309E01236A4602A9304600F061
:10040000D1FD002840F0F2846D1EF4D130969DF8A5
:10041000400041077FF583AE2020002C8DF80000BE
:100420007FF77DAE309D01236A4602A9284600F081
:10043000B9FD002840F0DA84641EF4D130956EE6F0
:100440000FF6C030059000F0B5BC0E9D002D04D510
:10045000204600F013FE044607E02A46204600F03E
:1004600017FE002814BF041B2C46089400F0A2BC01
:10047000D9F8001051F8040BC9F8001020F000045E
:10048000002121F0FF3512ABCDE902450593DDE9EE
:10049000022306993C2413B90AB90E98A0B102F0C0
:1004A0000F05641E30353A2D08DA12090D5542EA5F
:1004B00003721B0908BF002A02D105E02735F4E7C3
:1004C00005980D19A842EAD308190590C4F13C0219
:1004D0000E98089282420ADABDF84010821A4FF64E
:1004E000EF7001400A92ADF8401000F063BC0028A4
:1004F00040F160849DF8400000F01400102840F0A6
:1005000059840F9B07990A985B1A1B1A9A1A002A9A
:1005100040F350849AE32B99487820B14FF0FF3490
:100520000FF6B020EFE69DF84200622860D0682800
:1005300017D06A283FD06C2806D0712847D074287D
:100540002CD07A281DD062E0D9F8001051F8040BA5
:10055000C9F80010002866D14FF0FF340FF68C2048
:10056000D1E6D9F8001051F8040BC9F8001020B9F1
:100570004FF0FF340FF67420C5E60D99018000F0AE
:1005800019BCD9F8001051F8040BC9F80010002864
:1005900049D14FF0FF340FF65420B4E6D9F80010DB
:1005A00051F8040BC9F8001000283CD14FF0FF347B
:1005B0000FF63820A7E6D9F8001051F8040BC9F857
:1005C000001080B94FF0FF340FF620209BE6D9F8D9
:1005D000001051F8040BC9F8001020B94FF0FF3497
:1005E0000FF608208FE60D9AD317C0E90023E1E348
:1005F000D9F8001051F8040BC9F8001020B94FF0D9
:10060000FF340FF6E8107EE60D990170D2E3D9F8B9
:10061000001051F8040BC9F8001020B94FF0FF3456
:100620000FF6C8106FE60D990160C3E3D9F80020FA
:10063000D21D22F00702C9F80020D2E900010832D9
:10064000C9F80020CDE90201C80F02D007982D217A
:100650000AE0BDF84000810702D507982B2103E08E
:10066000C00705D50798202112AA1154401C0790F5
:1006700012A80799DDE9024543184BF020006128D4
:10068000059321AE0BD00E98002802D506200E90BF
:1006900005E001BF4BF02000672801210E91DDE944
:1006A000020148004015401C0A460DD109030BD039
:1006B000ABF1610703201A2F089002D20FF6481100
:1006C0000DE00FF648110AE070B912030CD1ABF13E
:1006D000610703201A2F08901CD30FF6381103224C
:1006E000184600F001FD65E3DDE902016A4600F00D
:1006F00007FDCDE902014BF02000612811D10598DA
:1007000030210170821C0592BBF1610F0CBF782172
:10071000582102E00FF6F801E1E741700798801CCC
:100720000790DDE9020120F0000231F0004308BF2C
:10073000002A02D10025002445E14BF02008B8F141
:10074000610F40F095800E98002847BF212101914C
:10075000401C0190019F7F1C204629460022002357
:10076000DDE9024500F004FD38BF85F00045009941
:100770008DF88420091F002F00910DF1850034DDD4
:100780000646204629460022002300F00BFD2BD20E
:100790001C2200F021FD04460D4600F0BBFDFF1FAA
:1007A000002F804609DD00F0D1FD02460B462046B1
:1007B000294600F093FE04460D46F01D0721B8F1CE
:1007C000000F0CDD491E5EBF08F00F0200F8012D7E
:1007D0004FEA2818F3D502E0002200F8012D491E47
:1007E000FAD5C61D002FCCDC30460DF18501401A2C
:1007F00001990DF1850605468842C8BF0D46002DBA
:100800002FD4854206DA0DF18500415D0829A8BF85
:100810000F2000DA0020294621AA0A4400E06D1EBC
:1008200012F80139491E8342F9D00F2804D10DF185
:100830008500425C521C4254002904D50098001DDA
:1008400021AE6D1C0090681E0BD431180A7830322E
:10085000D3B23A2BA4BF5A443A3A401E01F80129B8
:10086000F4D50E98002840F1AD80691E0E91A9E0E4
:100870000099DFF8002747F29750414391FBF2F2CD
:10088000009225F00045C2F10702002A04DD20464F
:10089000294600F04BFB0BE052420020DFF8D8164F
:1008A00000F044FB02460B462046294600F088FE35
:1008B00004460D46B8F1660F06BF009F0A370627AB
:1008C0000E983F18142FC8BF142730208DF88400CD
:1008D0000DF1850000E03046002F35DD064620464C
:1008E000294600F091FF01460A4606F1080304205C
:1008F0000A26B2FBF6F606EB860EA2EB4E0230326B
:1009000003F8012C0A22B6FBF2F202EB820EA6EBF0
:100910004E063036401E03F8026DE9D1083F002F25
:1009200003F10806D7DD084600F080FF02460B46BB
:100930002046294600F0D2FD0022DFF8403600F0C4
:1009400083FF04460D46CAE70DF18501401A0DF1FB
:10095000850604E00099491E401E0091761C3178FE
:100960003029F7D0B8F1660F02D10099491C04E094
:10097000B8F1650F0CBF012100210E9D4D19A84251
:10098000B8BF451E002D1DD4854204DA705D3428A1
:10099000C8BF392000DC30202946721E531800E001
:1009A0006D1E13F80149491E8442F9D0392802D13D
:1009B000705C401C7054002904D50098401C1646F9
:1009C0006D1C0090009C01F015F8406A0778DDF876
:1009D000388028B2002802DC01250FF23C664BF07B
:1009E0002000662808BF641C16D0672846D120B2B4
:1009F00010F1040F48DB404546DA9DF84000641CC6
:100A0000010703D428B24045D8BF804620B2B8EBD6
:100A1000000848BF4FF000080FFA84FBBBF1000F3D
:100A200000F3B5800898411C0891302205990A54BA
:100A3000B8F1000F03DC9DF84000010704D50898C9
:100A4000411C089105990F5418EB0B0FB8BFC8F162
:100A5000000424B26042A0442AB20B909045B8BF73
:100A60004546059B08982DB209952A4631461844FB
:100A700000F03AFBA8EB05000C90D2E0BBF1610F4F
:100A800017D14FF0700B19E028B2404504DA9DF8F9
:100A900040100A0758BF8046B8F1010848BF4FF020
:100AA0000008BBF1670F14BF4FF0450B4FF0650B0B
:100AB00004E0BBF1410F08BF4FF0500B0898411CF8
:100AC0000891B8F1000F059916F8012B0A5403DCC0
:100AD0009DF8400001071AD50898411C0891B8F10B
:100AE000000F05990F5412DD6D1E28B28045B8BF66
:100AF00045460598089B2AB23146184400F0F4FA9E
:100B000008992DB269180891A8EB05000B9005987B
:100B10000899084421B2002980F800B003D42B22A0
:100B20004270821C04E02D2242700C46821C6442FA
:100B300000212CAB20460AE004460A2094FBF0F08A
:100B400000EB8005A4EB450403F8014B491C00B2FF
:100B50000028F1DC012906DC4BF02000652804BFE9
:100B6000302002F8010B00292CAB08D1302002F80C
:100B7000010B06E0491E585C303002F8010B0029D9
:100B8000F8DC059908980844121A099249E028B23D
:100B900021B288421CDA0598089B2AB231461844D3
:100BA00000F0A2FA08992DB269180891ABEB050084
:100BB000B8F1000F0B9003DC9DF84000020704D54C
:100BC000059847540999491C0991CDF8308028E0CF
:100BD0000598089B22B23146184400F085FA08981F
:100BE0002D1B5844B8F1000F089003DC9DF840100D
:100BF0000A0703D5411C089105990F5428B2804576
:100C0000B8BF45460598089B2AB206EB0B0118446D
:100C100000F06AFA08982DB228180890A8EB050091
:100C20000B909DF8400000F01400102840F0C280A6
:100C3000079A08990B988A18099982180C988A18AB
:100C400082180F98824280F2B580821A0A92B1E02F
:100C50009DF84200622808D068280ED06A2814D077
:100C60006C281FD0712810D01CE0D9F8001051F862
:100C7000040BC9F80010C0B21AE0D9F8001051F8FE
:100C8000040BC9F8001080B212E0D9F80020D21D80
:100C900022F00702C9F80020D2E900010832C9F8A1
:100CA000002006E0D9F8001051F8040BC9F8001034
:100CB0000021CDE902019DF8400001075AD5DDE988
:100CC0000223002B08BF002A54D04BF020007828C4
:100CD00050D1079812A930220A54401C431C079394
:100CE00001F800B046E09DF84200622808D068286C
:100CF0000ED06A2814D06C281FD0712810D01CE0A8
:100D0000D9F8001051F8040BC9F8001040B21AE0ED
:100D1000D9F8001051F8040BC9F8001000B212E025
:100D2000D9F80020D21D22F00702C9F80020D2E92C
:100D300000010832C9F8002006E0D9F8001051F887
:100D4000040BC9F80010C117CDE90201002902D532
:100D500007982D210AE0BDF84000810702D50798C9
:100D60002B2103E0C00705D50798202112AA1154B2
:100D7000401C079012A807990144059102A8594602
:100D800000F04EF816E001200790D9F8000050F866
:100D9000041BC9F800008DF848100BE02521012242
:100DA000BBF1000F8DF84810079203D08DF849B0C1
:100DB000022107910F9A07980A990C9C121A089819
:100DC000521A0B99121A0998521A121A9DF84000D9
:100DD000141B41073FF5AAAA2020002C8DF8000023
:100DE0007FF7A4AA309E2546FFF794BA4FF0FF3054
:100DF00031B0BDE8F08F0000CBCCCC0C686A6C74CD
:100E00007A4C00007072696E74665F733A2062619A
:100E10006420257320617267756D656E7400000033
:100E20002DE9FC4304466F29256908BF082605D033
:100E300041F02000782814BF0A261026D4E90023A8
:100E40003C2790469946642918BF692905D1002B93
:100E500003D5D8F1000869EB4909B9F1000F08BFC3
:100E6000B8F1000F0CD1206B50B9082E3AD194F88C
:100E70003800010736D530203B2785F83B0031E0AC
:100E80008DF80010404649463246F31700F0B6FD93
:100E90003032D0B27F1E3A2801970EDAEA5540462A
:100EA00049463246F31700F0A9FD80465FEA010982
:100EB00008BFB8F1000F05D108E09DF80000121836
:100EC000513AEBE7E068E9198842DBD3082E09D1F3
:100ED00094F83800010705D5E85D302802D07F1E60
:100EE0003020E855C7F13C02A261E919E160206BAE
:100EF000824208DA821A22624FF6EF70218F014097
:100F00002187BDE8F38300280ED594F8380000F05F
:100F10001400102808D1636B6169206A5B1A1B1AE0
:100F20009A1A002AC8BF2262BDE8F3832DE9D04394
:100F300006460F4614464FF00008DFF8449012E0D2
:100F4000E00707D542464B463046394600F07CFC68
:100F500006460F464046494642464B4600F074FC62
:100F6000641080468946002CEAD130463946BDE8F7
:100F7000D0830000A08601000000F03F84D7974195
:100F80000000244010B503460C461146A06898475F
:100F9000A06020B1E06A401CE062002010BD4FF06C
:100FA000FF3010BDF8B505460E4617461C4600201A
:100FB0005CB117F8011BB068A847B06030B1F06AA7
:100FC000401CF0620020641EF3D1F2BD4FF0FF30F0
:100FD000F2BD00007072696E74665F733A20256E10
:100FE00020646973616C6C6F776564007072696E00
:100FF00074663A2062616420256E20617267756DA7
:10100000656E7400000000006E616E004E414E007F
:10101000696E6600494E460030000268531C03604A
:1010200011707047C9B202788A421AB11CBF10F819
:10103000012FF9E718BF002070472E0080B500B9D6
:1010400006A005490B681BB122220021984701E048
:1010500000F0ECFD222002BD9C310020636F6E7316
:10106000747261696E742068616E646C65723A2096
:10107000626164206D6573736167650000F101034F
:1010800010F8011B11B110F8011BFBE7C01A7047E3
:10109000C9B2830706D0521E22D310F8013B9942F1
:1010A000F7D11FE0083A13D302F1040241EA01210B
:1010B00041EA014150F8043B121F21BF4B40A3F10C
:1010C000013C2CEA030C1CF0803FF3D0C9B2001F96
:1010D000083210F8013B521E28BF91EA030FF8D8DE
:1010E00018BF0120401E70474AB1000011F8013BB3
:1010F000521E00F8013B1CBF11F8013BF8E7704796
:1011000010B5144600F002F8226010BDC1F30A5376
:1011100043B14A0012F5001F28D2A3F2FE32A1EB20
:101120000251704750EA410C20D001F0004C31EAE6
:101130000C01B1FA81F204BFB0FA80F3D2180B3A75
:10114000B2F120032CBF00FA03F1914041EA0C01F7
:101150003EBFC2F1200C20FA0CF3194390405242DA
:1011600040F2FD33D21A01EB035170470022704761
:1011700041EA030C50EA4C0C52EA0C0C4FF4001CF0
:1011800009D307D01CEB410F9CBF1CEB430F8B42D4
:1011900008BF824270471CEB430FFBD8994208BF3F
:1011A0009042704741EA030C50EA4C0C52EA0C0C96
:1011B0004FF4001C09D307D01CEB410F9CBF1CEB64
:1011C000430F994208BF904270471CEB410FFBD878
:1011D0008B4208BF82427047124254D440F2FF7CD7
:1011E0001CEA11530FD0634531D09B1863453CBFB7
:1011F00001EB0251704701F0004141EA0C5100201F
:10120000AFF30080704750EA410320D001F0004C5A
:1012100091EA0C011CD0B1FA81F30B3B9A420DD933
:10122000D21A994051EA0C01C3F1200C20FA0CFCAF
:1012300061449840531C40F2FF7CD7E7914041EA5B
:101240000C01C2F1200C20FA0CF3194390407047B6
:10125000B0FA80F31533202BE0D3202AEED3203AC6
:10126000203B9A4209D9D21A00FA03F141EA0C0153
:101270000020531C40F2FF7CB8E700FA02F141EA7B
:101280000C0100207047524240F2FF7C1CEA1153CF
:101290000DD06345DBD0B2EB030C3CBFA1EB025198
:1012A00070470CF1010221EA035141F4801150EA28
:1012B000410CCCD001F0004C352A27DC30B481EA57
:1012C0000C01B2F1200309DAC2F12003044601FA4D
:1012D00003F5D0402843D1409C400CE0C3F12002EC
:1012E000450020FA03F418BF44F0010421FA03F08A
:1012F00091400C43002174F1004550F1000051EB86
:101300000C01244230BC7FF47BAF70476146002063
:1013100076E70000C1F30A5340F21E42D31A0CDDF7
:10132000CA0283F3070342EA505242F00042DA4015
:1013300002EBE17282EAE17070476FEAE17203F258
:10134000E13008B182F000407047000010F0004129
:1013500060B148BF4042B0FA80F29040D21CC2F562
:10136000846241EA025202EBD0214005704700003E
:10137000841A71EB030604D26E40001BB1411219AE
:1013800073414FF4001C1CEB410F34BF7CEB430650
:1013900083E00C0DA4EB1356362E00F37C80012E57
:1013A00045EAC32341DC43EA525312BFD202920200
:1013B0005B08240545EAC12141EA5051D2EBC02027
:1013C000994125D407D1B0FA80F610FA06F162D01F
:1013D0000020203608E0B1FA81F6B140C6F12002C3
:1013E00020FA02F21143B0404FEAF474B4EB4654D1
:1013F00034F001064FEA74040AD8D6F50016760DCB
:1014000004F00044F04061FA06F25040F1404840D8
:10141000C00A40EA415021F0004128BF5FEA500570
:1014200050F1000044EBD12135E0DB0A45EAC1214F
:10143000C90AB6F120050EDD42EA0242120CC5F1DE
:10144000200603FA06F6EB4042EA06056D42984193
:1014500061F100010DE062FA06F5F240554063FAD1
:1014600006FC82EA0C02F3405A406D42904161EB67
:10147000030111F4801F05D1641E620502D06D00C6
:101480004041494121F48011430875F1004350F176
:10149000000041EB045170BC70471CEB410F15D2AA
:1014A00023F0004352EA43060BD04FEA4C0CBCEB4E
:1014B000410F04D80C0D661E342EB7DDEBE7801A01
:1014C000994150EA410608BF0021E4E708BF1CEB40
:1014D000430F28BF6FF00001DDE7000070B491EA10
:1014E000030F4FF000457FF543AF6B40841A71EB5B
:1014F000030603D2001BB141121973414FF4001CC3
:101500001CEB410F34BF7CEB430442E00C0DA4EB19
:101510001356352E4FDC45EAC323DB0A45EAC121C9
:10152000C912B6F120050DDD63FA05F6EB4086EA37
:101530000305124218BF45F00105C01851F1000122
:101540000CD213E062FA06F5F2405540F3415A40DE
:10155000B340F3405A408018594107D349085FEA25
:1015600030005FEA350528BF45F0010501F580111F
:10157000420875F1004250F1000041EB04514E0069
:1015800016F5001F70BC38BF70470020090D090513
:1015900070471CEB410F10D252EA43060BD0BCEB54
:1015A000410F05D80C0DAB43661E342EB6DD02E0AC
:1015B000AB438018594170BC704770BC7047000045
:1015C000F0B540F2FF7581EA030C0CF0004C15EA0F
:1015D00011541DBF15EA1357AC42AF42E5E0BC41C0
:1015E000C1F31301C3F31303801A994143F4801329
:1015F00004D2641E0018494180185941C90241EAC9
:101600005051B1FBF3F603FB1611A2FB0675D7EBA5
:10161000C020A94102D2761E80185941C90241EA70
:101620005051B1FBF3FE03FB1E11A2FB0E75D7EB6D
:10163000C020A94103D2AEF1010E801859418902A0
:1016400041EA9051760546EA8E2EB1FBF3F603FB94
:101650001611A2FB0675D7EB8020A94102D2761E97
:1016600080185941C90241EA50514EEA060EB1FBB9
:10167000F3F603FB1611A2FB0675D7EBC020A941B8
:1016800002D2761E80185941C90241EA5051B1FB7D
:10169000F3F703FB1711A2FB0735D3EBC020A941D9
:1016A00067F100070CBF004247F0010766F3D5273A
:1016B0004FEA1E31B80814F5806412DDBD0775F1DC
:1016C000004250EB0E5051EB045111F5801F5CBFEE
:1016D00041EA0C01F0BD4CF07F6141F0E041002097
:1016E000F0BDBD076D0840EA0E5041F48011D4F101
:1016F0000104B4F120060ADAC4F120060200E04039
:1017000001FA06F3E1401843B24015430EE0342CD1
:1017100013DCC6F1200445EA40056D0820FA06F204
:10172000154321FA06F0A1400D43002175F1004256
:1017300050F1000051EB0C01F0BD00205FEA0C01FC
:10174000F0BDCFB992185B41B3FA83F704BFB2FA88
:1017500082F6BF190B3FB7F120062FBF02FA06F33E
:10176000BB40C7F1200622FA06F638BF3343BA4021
:101770001CB1E419641E33E77F4231F00041B1FA35
:1017800081F404BFB0FA80F6A4190B3CB4F1200632
:101790002FBF00FA06F1A140C4F1200620FA06F698
:1017A00038BF3143A0403C1B1AE7AC421ABF05EAE0
:1017B0001357AF4212E050EA41061CBF52EA4306FB
:1017C000BFE750EA4107304661461CBF41EA055178
:1017D000F0BD52EA430C08BFC143F0BD00204FF4F6
:1017E000001616EB410F98BF16EB430F08BF16EB20
:1017F000410F24BFC14305E016EB430F0CBF614608
:101800004CEA0551F0BD0000400D40F21E4C40EA8C
:10181000C120BCEB115C40F0004003D48CF3070105
:10182000C84070476FEAE1707047000050B1B0FAED
:1018300080F18840C91CC1F58461090501EBD02104
:10184000400570470146704730B540F2FF7C1CEA06
:1018500011541DBF1CEA1355644565453FE06419EA
:1018600081EA030C6FF35F530CF0004C43F48013D8
:10187000C90241F0004141EA505EC5021100A5FBDA
:10188000020200284FF00000EEFB01204FF00001A3
:10189000E3FB052118BF42F0010240180021494135
:1018A000E3FB0E01A4F580640D0302D292184041BF
:1018B000494154F1010470DD450872F1004250F1D4
:1018C000000051EB0451A1F5801102D441EA0C0152
:1018D00030BD40F2FF7E4CEA0E51002030BD0CEAD4
:1018E0001355644518BF654581EA030C0CF0004CA4
:1018F00041D050EA410E1CBF52EA430E02E061465D
:10190000002030BD24422C441BD15FEA050EF6D0E6
:10191000090302BF01460020AEF1140EB1FA81F5B1
:10192000AEEB050401FA05FE0C35C5F1200100FA05
:1019300005F5C8404EEA000E6FF35F5343F4801381
:101940009CE733F00043B3FA83F504BFB2FA82FE9A
:1019500075440B3D641BB5F1200E2FBF02FA0EF348
:10196000AB40C5F1200E22FA0EFE38BF43EA0E034B
:10197000AA40641C7CE750EA410E14BF52EA430EB1
:101980006FF000014FF4001515EB430F8EBF1946A1
:1019900015EB410F9DE7B4D830BDD4F10104B4F18B
:1019A00020050FDAC4F12005520828BF42F00102D9
:1019B00010FA05FE01FA05F57244E2BFE040284343
:1019C000E1400FE0352C9ADCC5F1200452EA4002D8
:1019D00020FA05F218BF42F0010231FA05F0A140E9
:1019E0000A43002172F1004250F1000051EB0C015A
:1019F00030BD0000004870478C010020BBBBE1B146
:101A0000B2F5803F80F07E80022A1ED98C46B1FB61
:101A1000F2F102FB11C31B0443EA1043B3FBF2FCD7
:101A200002FB1C3380B240EA0343B3FBF2F002FB3B
:101A3000103240EA0C4000237047022A05D9844640
:101A4000B0FBF2F002FB10C270474AB105D100F0C2
:101A5000010249085FEA3000704700220023704706
:101A600000F0E8B80B00020000210020704790420F
:101A700071EB030CF6D3B3F5803F2FD2F0B5B3FA78
:101A800083F7B1FA81F4A7F10F0E3D1B5340CEF15D
:101A9000200602FA0EF2F3415340B5F10F0746D883
:101AA0000F3C2C444140C4F12006A040F14141408C
:101AB000B1FBF3F603FB1611A2FB0645001BA9417F
:101AC00002D2761E8018594180EA010221FA0EF3F3
:101AD00062FA0EF200215A403046F0BD30B4B1FB3C
:101AE000F3FC03FB1C11A2FB0C45001BA94103D214
:101AF000ACF1010C8018594130BC02460B466046DF
:101B000000217047B2F1807F65D3F0B5B2FA82F759
:101B1000B1FA81F4C7F10F063D1B22FA06F307F173
:101B2000110EF24120355A40B5F10F07B8D94140A6
:101B3000C4F12006A040F1414140B1FBF3FC03FB9E
:101B40001C11A2FB0C45001BA94103D2BCF1010CE6
:101B5000801859410F2F12D30F3FC90341EA50415A
:101B6000B1FBF3F603FB1611A2FB0645D4EBC03024
:101B7000A94102D2761E8018594146EACC3C07B3EF
:101B80004140C7F12006B840F1414140B1FBF3F6B6
:101B900003FB1611A2FB0645001BA94102D2761ECB
:101BA0008018594180EA010221FA0EF3C7F120049E
:101BB00062FA0EF20CFA07F05A402CFA04F13043A4
:101BC000F0BD80EA010221FA0EF3002162FA0EF262
:101BD00060465A40F0BD8C46B1FBF2F102FB11C3E6
:101BE0001B0243EA1063B3FBF2FC02FB1C331B0233
:101BF0004CEA002043EA1063B3FBF2FC02FB1C3307
:101C00001B024CEA002043EA1063B3FBF2FC02FB28
:101C10001C331B024CEA002043EA1063B3FBF2FCC6
:101C200002FB1C324CEA002000237047012000F028
:101C300003B800007047000080B5AFF30080024A8F
:101C400011001820ABBEFBE72600020078B50400A7
:101C500085B044D004F52A75687820B90021297030
:101C6000204600F041FD03206870206800F042FE2D
:101C700083B000F047F80EBC206800F031FE002869
:101C80002BD12068002100F03BFE002128200026F7
:101C900009E000FB01F22244283201235370117045
:101CA000002300F028F862689142F2D3002109E095
:101CB00000FB01F2224402F5B4720023117053704C
:101CC00000F019F862689142F2D383B000F01AF87C
:101CD0000EBC206800F016FE18B1022068700120CA
:101CE00007E084F8240001216970206801F0A6FA59
:101CF000002006B070BD491CD67013615661936117
:101D0000C9B27047211D68462022FFF7EDB910B512
:101D100000F006FC01D1022010BD00F0FDFB2068A0
:101D200000F0E0FD00F0EEBB0021204600F0CDBD4C
:101D30002DE9F84F054686B0286801F081FA0104C4
:101D40001BD4420540F1A08200F061FB4FF6FF304A
:101D50008A8802408A80284600F0FDFC002128463F
:101D600000F0E3FB1BE3012803D100F031FB00206E
:101D700008803978284600F0E1FC2F6807F144011B
:101D800008880204EED50A8812F00F00009048F28D
:101D900080084BF68F7B40F68F7448F60F7640F044
:101DA000AC80D0062CD429680A881640084646F430
:101DB0000046068005F124042868B0F85010227906
:101DC00001EBC20100EB410000F204400088A16970
:101DD000C0F3090020620844A0610021284600F0F9
:101DE000ADFC20780028C8D0E0690028C5D1217852
:101DF000286841F08001A0F84C1000212170BCE758
:101E000028680088020505F5B4761BD588893178E5
:101E100000EBC10007EB400202F20C4205F52C7109
:101E20001388C3F30903F3613846F28801F024FAFA
:101E3000286801880C4044F080040480284600F0A3
:101E40006DFC9AE7000498D529680A881440084672
:101E500044F0800404802868B0F85010327800F014
:101E6000B0FA1B88C3F30903002BF3611CBF71692F
:101E700000290AD0F28801F0FFF97069F169014484
:101E800071612846002100F04FFC28680088010598
:101E9000D7D400F44050B0F5405FD2D0296808464E
:101EA000B0F85020511801F20C410888C0F3090025
:101EB000088030693F2808D3420910F01F0F08BF7F
:101EC000521E088840EA822001E018B9088840F4D0
:101ED000004006E04208C00748BF521C088840EA9C
:101EE00082200880286801880BEA010181F44051B2
:101EF00048EA0108A0F800803FE72868009930F818
:101F0000219008462821484329185FEA0940019199
:101F100048F68F7A40F19D802968009831F82010AA
:101F200028680C40009944F0800420F82140019A70
:101F300002F5B477387B70B92868B0F850103A7859
:101F400000F03FFA1C88C4F30904002C6DD0FA8815
:101F50007969234667E0F878022848F2C0022FD159
:101F60002C68B9695FEA49433B78A446B4F850400D
:101F700004EBC30409F040000CEB440C11D50CF247
:101F8000044C00F018FA2CBF091B0021B96109B9F3
:101F900000F031FA08B100F024FA002C45D03A895B
:101FA0003EE00CF20C4C00F006FA2CBF091B00219D
:101FB000B96109B900F01FFA78BB00F012FA2CE001
:101FC0002968387831F820300AEA03030C461A43AE
:101FD00024F8202038782968024631F82230590444
:101FE0000FD52A68B2F8501001EBC00102EB410096
:101FF00000F204400488C4F30904002C15D03A8987
:102000000EE02968B1F8502002EBC00201EB42005B
:1020100000F20C400488C4F30904002C05D07A892E
:1020200023467969286801F027F9F8692018F861D2
:102030007A6922447A61B86938B13869844204D334
:102040002868394600F037FE03E03978284600F06A
:102050006BFB5FEA09605ED50199286801F12807EA
:10206000009930F82120164046F4004620F82160FF
:10207000F87801282BD10021B961387B00280ED0D7
:102080005FEA496013D5787850B900F0CEF901883D
:10209000C1F309010180028842F40042028068E62F
:1020A0000128FCD100F0C1F90021018061E67878B7
:1020B0002A6800287FF457AE00F08AF90888C0F338
:1020C000090008800A8842F400420A8051E62A6822
:1020D000B8695FEAC95113461ED43978B2F8502066
:1020E00002EBC10203EB420303F204431A88C2F37A
:1020F0000902824234BF801A00200028B8613FF4F0
:1021000039AE786910447861F9695218FA61394634
:10211000286800F0D0FD30E697F800C0B2F85020F3
:102120005FEA496102EBCC0209F480444CF280067C
:1021300003EB420346D503F204431B88C3F30903B0
:10214000834234BFC01A00200028B86104D100F0D7
:1021500096F9002C50D045E00CB100F070F997F8DA
:10216000240001283DD100F075F9787808BB00F013
:1021700052F93F2B0288C2F3090202800AD35A099E
:1021800013F01F0F08BF521E048844EA822444F44F
:1021900000440CE023B9028842F4004202800DE0C2
:1021A0005A08DC0748BF521C048844EA8224048091
:1021B00004E0012802D100F02EF9038079619BB27E
:1021C0003A8950E003F20C431B88C3F30903984299
:1021D0002CBFC01A00200028B8610ED100F04FF9C2
:1021E000002C43D12968387831F820200AEA02020D
:1021F00046EA020A21F820A038E00CB900F01FF9E5
:1022000097F82400012831D100F024F92C6878785F
:1022100008BB00F0C7F83F2B1088C0F309001080FE
:102220000AD3580913F01F0F08BF401E148844EA50
:10223000802444F400440CE023B9108840F40040AA
:1022400010800DE05808DC0748BF401C148844EAA1
:102250008024148004E0012802D100F0A3F8138048
:1022600079619BB27A89286800F0F4FF2968387890
:1022700031F8202048F6BF731A4082F0300248EA55
:10228000020821F8208078E5410404D500F0BFF869
:102290004BF6FF7080E0810404D500F0B8F84DF6ED
:1022A000FF7079E0C1041BD52A6802F140014FF6A6
:1022B000FB700B8803400B804FF6F7702968B1F86C
:1022C00040200240A1F84020284600F064FA296826
:1022D000B1F844204EF6FF700240A1F844205EE0C1
:1022E000010546D5002002A92A6832F8203021F8DD
:1022F0001030401C0828F7D3286830F8402F42F0EF
:10230000010202804FF6FE702A68B2F840300340A6
:10231000A2F840302A68B2F844004305FBD5B2F871
:1023200044404FF6FF300440A2F8444000202B68A0
:1023300031F8102023F82020401C0828F7D3286803
:10234000B0F8401041F00801A0F840104FF2FF70C3
:102350002968B1F844200240A1F844202868B0F868
:10236000401041F00401A0F84010284600F005FAA2
:1023700015E081050AD500F04AF84FF6FF508A882B
:1023800002408A80284600F0E2F908E0C00506D540
:10239000296840314FF6FF608A8802408A8007B082
:1023A000BDE8F08FB4F8500002193C7802EB04123B
:1023B00002F20C427047BCF80040C4F30904A14289
:1023C000704701EBC20100EB410303F20C4370477D
:1023D000B2F8500081183A7801EB021101F20C4179
:1023E00070472968387831F820300AEA03031A4325
:1023F00021F820207047296831F823C00BEA0C0B24
:102400008BF4005B48EA0B0B21F823B07047286877
:1024100000F1400170472868B0F850203C7810184F
:1024200000EB041000F2044070472868B0F8501028
:102430003A78081800EB021000F204407047286850
:1024400030F82C100AEA0101024646EA010A22F895
:102450002CA07047FA6978699A18FA61C1183A692C
:10246000386A904203D31346C01A3862704710B1DD
:10247000034600203862002287F8242070477878CD
:1024800080B92868B0F85020101800EB0C1000F24A
:1024900004400188C1F309010180028842F400422E
:1024A00002800BE0012829D12868B0F850201018CC
:1024B00000EB0C1000F20440002101802A687878BB
:1024C00080B9B2F8500081183A7801EB021101F29C
:1024D0000C410888C0F3090008800A8842F40042D1
:1024E0000A800BE0012809D1B2F8500081183A782F
:1024F00001EB021101F20C410020088028463978D6
:1025000000F01CB90121FFF710FC206800F094FED8
:10251000002084F8A80210BD012084F8A8027047AA
:10252000044694F8A8020128704710B5FFF7F8FF99
:1025300001D1022010BDFFF7EFFF84F824102068BE
:1025400000F074FEE4E770B5044601F007052820AA
:10255000454360190D0603D528300126467003E077
:1025600000F5B4700025457001F0070101700261AB
:10257000C370022B04BF0021017194F8A812012935
:1025800001D1022070BD00F014F800F0C9F900205C
:1025900084F8A80270BD10B5044600F094F800F06D
:1025A0008BF801D1022010BD00F003F800F0FBFA17
:1025B000AEE7012284F8A82201462068704738B5AA
:1025C0000C4604F0070528214D43411901F5B4716B
:1025D00004F007044A618B610022CA614A700C70E2
:1025E0001BE001F00701282251430844D0F8840180
:1025F000704738B501F0070528246543441928348D
:102600006261A36123620122002301F0070184F8C3
:102610002420E361627021702146006800F04BFBCA
:10262000002032BD38B505460C46696804F0070045
:10263000814201D2012032BD2821220605D548431E
:10264000284400F12801012004E06143681800F5E6
:10265000B4710020487001228A7004F007040C70E5
:1026600095F8A802012801D1022032BD85F8A822E0
:10267000286800F085FD24B9286805F52C7100F064
:10268000E2FD002085F8A80232BD10B5044601F035
:102690000F036068984201D2012010BD00F013F8CA
:1026A0000023837000F008F801D1022010BDFFF76D
:1026B00080FF00F07EFD2BE701F00701017094F828
:1026C000A8120129704701F0070228204243A018F0
:1026D0000A0603D5283001234370704700F5B47013
:1026E000002242707047000000687249884200D0A2
:1026F000704780B57048026842F400020260002210
:10270000006800F40000009005210098142000F0FB
:10271000E1FDBDE80240142000F0F9BD00F52C7188
:10272000D0F8EC0200F04EBE0B4628225343C218EC
:10273000D0F8EC02D2F87C2100F06EBE0B462822C5
:102740005343C218D0F8EC02D26B00F0A6BED0F80A
:10275000EC0200F036BF10B50446A068022818BF8E
:1027600000F094FFD4F8EC02012100F016FFD4F839
:10277000EC02BDE8104000F0E7BE10B50446D4F806
:10278000EC0200F00DFFA06920B14C48016841F057
:102790000601016010BDD0F8EC0200F009BF10B5D1
:1027A000044647484349C0F8EC42C4F8C0020160FF
:1027B000082202230021426083608161C1610162BD
:1027C000FFF744FA08B100F061FFD4F8C002182303
:1027D0000022002100F05CFFD4F8C0025823002240
:1027E000802100F055FFD4F8C002C02300228121CF
:1027F00000F04EFFD4F8C0024FF48873002201218C
:1028000000F046FFD4F8C0024FF48073002282210A
:1028100000F03EFF002010BD80B5D0F8C002FFF7E9
:1028200076FABDE8024051E010B51C461346D0F8D8
:10283000C0022246FFF787FEBDE8104046E080B5A3
:10284000D0F8C002FFF7A7FEEBE780B5D0F8C002D2
:10285000FFF7E8FEE5E780B5D0F8C002FFF715FF07
:10286000DFE7D0F8C02201F07F0328204343D018CF
:10287000090602D590F82A00704790F86A0170475F
:1028800080B5D0F8C002FFF750FECAE780B5D0F897
:10289000C002FFF7AEFEC4E780B5D0F8C002FFF774
:1028A0008EFEBEE7D0F8C002FFF79BBE054870471A
:1028B00000000000005C00401C10024010ED00E031
:1028C00084220020942A002070477047014600208F
:1028D00021B1022901D10120704702207047000078
:1028E0000EB419E04030002181804FF43F42028055
:1028F00000207047B0F8402044F2FF0100F0A5BC72
:10290000002070470EB4012120F8401F00220280F1
:102910000023838000210182002003B07047000063
:102920002DE9F04F0B4602461D7832F82560DC7821
:1029300048F68F1100200E40032C0CD8DFE804F07D
:1029400002080C0546F4007606E046F4C06603E093
:1029500046F4806600E0012048F28004264322F815
:10296000256048F68F7619780D4632F82570374085
:102970003943214322F825104BF68F75197B93F8C4
:10298000009000294CF2800748F6BF7E48F2C0084C
:102990007CD1D9884FF6FE7A0AEA010B59780029D2
:1029A000B2F850101FD0114401EB091101F58069F4
:1029B000A9F800B0197832F821506D0606D532F822
:1029C00021502E4048EA060622F821601978DB786B
:1029D000012B32F821300EEA03030EBF1C4383F0B3
:1029E00020031C43DBE0891801EB091101F5816923
:1029F000A9F800B0B2F8501001EB020C19780CEBFA
:102A0000011C0CF20C4CBCF800E0CEF3090EACF843
:102A100000E019693F290BD34FEA511E11F01F0F37
:102A200008BFAEF1010EBCF8001041EA8E2102E0B1
:102A300021B9BCF8001041F4004109E04FEA510E01
:102A4000C90748BF0EF1010EBCF8001041EA8E2103
:102A5000ACF80010197832F821C05FEA4C4C06D56A
:102A600032F821C006EA0C063E4322F821601978AC
:102A700031B911880D4085F440552C43148090E005
:102A800032F821301D4085F4005587E0D9780229BD
:102A900009D132F82910314041F4014141F080015F
:102AA00022F8291009E032F829A048F68F6101EADE
:102AB0000A0144EA010A22F829A0B2F850901978D4
:102AC000B3F808A0914409EB011101F580694FF6B4
:102AD000FE7101EA0A0AA9F800A0B2F8501093F8B2
:102AE0000090114401EB091101F5816C59894FF6F1
:102AF000FE7909EA0101ACF80010597893F800C09A
:102B0000002932F82C1023D1490405D532F82C10B5
:102B100031400F4322F82C70197832F821707F066B
:102B200006D532F821703E4048EA060622F82160B8
:102B3000197832F82160354085F44055254322F854
:102B40002150197832F821300EEA03031C4326E0A5
:102B5000490405D532F82C1031400F4322F82C706F
:102B6000197832F821707F0606D532F821703E4080
:102B700048EA060622F82160DE781978012E32F83C
:102B800021600EEA060618BF86F0200644EA060E0B
:102B900022F821E0197832F821301D402C4322F828
:102BA0002140BDE8F08F2DE9F041024691F800C0C8
:102BB00048780B7B4BF68F7E4CF2800448F28008FD
:102BC00048F6BF7548F2C00648F68F77ABB90028C3
:102BD00032F82C0008D0400636D532F82C000740D9
:102BE0003E4322F82C602FE0400458D532F82C00E8
:102BF00007403C4322F82C4051E0002832F82C00DA
:102C00002BD1400405D532F82C003840044322F87B
:102C10002C40087832F820305B0605D532F8203099
:102C20003B40334322F82030087832F820301F40F0
:102C30003E4322F82060087832F820300EEA030381
:102C400048EA030E22F820E0087832F820100D4000
:102C500048EA050822F820802AE0400405D532F829
:102C60002C003840204322F82C00087832F820301D
:102C70005B0605D532F820303B401E4322F8206029
:102C8000087832F820301F403C4322F82040087872
:102C900032F820301D4048EA050522F82050087817
:102CA00032F820100EEA010148EA010E22F820E075
:102CB0000020BDE8F0812DE9F8430E460546727804
:102CC000012A48F2800848F68F7140F00A81B46901
:102CD0003269A24238BF1446307B30B9F28800F026
:102CE00042FA00F037FA3C80F2E096F803E03078E0
:102CF000376ABEF1020F034640F0CD80BA4280F041
:102D0000BB8035F82300014041F4014141F08001CE
:102D100025F82310381B30626308327871789646A4
:102D200035F82E905FEA496704F001004FEA541C21
:102D30004FD5C1B900F0FFF901F20C4100F0EEF9F6
:102D400008D314F01F0F08BFACF1010C088840EA4B
:102D50008C2001E01CB9088840F4004001E000F03C
:102D6000D1F908800AE0012908D1B5F850004019CE
:102D700000EB021E0EF20C4EAEF80040728900F01D
:102D8000F2F900F0D1F932BF001B04460020306296
:102D90007078D8B900F0DEF900F0BAF907D360090D
:102DA00014F01F0F08BF401E00F0A6F90CE024B974
:102DB000388840F40040388084E06008E10748BF6C
:102DC000401C398841EA802139807BE0012879D193
:102DD0005CE0C1B900F0AFF901F2044100F09EF9E6
:102DE00008D314F01F0F08BFACF1010C088840EAAB
:102DF0008C2001E01CB9088840F4004001E000F09C
:102E000081F9088009E0012907D1B5F8500040197F
:102E100000EB021000F204400480328900F0A3F9B4
:102E200000F082F932BF001B044600203062707847
:102E3000D8B900F09CF900F06BF907D3600914F0E1
:102E40001F0F08BF401E00F057F90CE024B9388866
:102E500040F4004038802CE06008E10748BF401C87
:102E6000398841EA8021398023E0012821D1B5F851
:102E700050004719307817E035F8231048F68F6076
:102E8000014048EA010125F823103C46B5F85000FE
:102E90004719307811E0391B316235F823104A06A2
:102EA000B5F8501008D54F1907EB001707F20C477B
:102EB0003C80A3B2728907E04F1907EB001707F2B5
:102EC00004473C80A3B232897169284600F0C2F9F8
:102ED000317835F8212048F6BF70024082F0300288
:102EE00025E0307B002834D1B1693069884232BF97
:102EF000091A08460021B16100F023F93F283A88F9
:102F0000C2F309023A8019D3410910F01F0F08BF1C
:102F1000491E388840EA812040F4004038803178EA
:102F200035F821204BF68F70024082F4405248EA77
:102F3000020825F821800020BDE8F28308B938880E
:102F4000EAE74108C00748BF491C388840EA8120A9
:102F5000E4E7F078022867D122BBB5F8502030783A
:102F6000521902EB001202F204421388C3F3090360
:102F7000138030693F2808D3430910F01F0F08BFA2
:102F80005B1E108840EA832001E018B9108840F4E5
:102F9000004006E04308C00748BF5B1C108840EAB9
:102FA000832010807078F8B900F0E1F83A88C2F315
:102FB00009023A8030693F2808D3420910F01F0FF8
:102FC00008BF521E388840EA822001E018B93888CC
:102FD00040F4004006E04208C00748BF521C388851
:102FE00040EA8220388007E0012805D1B5F850007A
:102FF000326900F0BEF83A80F06900288FD030784E
:1030000035F8202044F2400303EA02049C4218BF32
:103010001A4284D135F82020114041F4004141F09A
:10302000C00125F820107AE7012863D1B169306921
:10303000884232BF091A08460021B161440800F0F5
:103040000101430972BBB5F850203778521902EBE1
:10305000071202F204423F28B2F800E0CEF3090E54
:10306000A2F800E00CD39C4610F01F0F08BFACF193
:10307000010CB2F800E04EEA8C2747F4004E0FE056
:1030800030B9B2F800C04CF4004CA2F800C009E01E
:10309000A44609B10CF1010CB2F800E04EEA8C2E06
:1030A000A2F800E0727802BBB5F8502057193278C8
:1030B00007EB021707F20C473F28B7F800C0CCF324
:1030C000090CA7F800C007D310F01F0F08BF5B1E44
:1030D000388840EA83201FE708B9FFF730BF01B105
:1030E000641C388840EA842018E7012A9BD100F04C
:1030F00028F813E701201FE7398841EA802141F4CD
:103100000041704700B15B1C088840EA832070478B
:103110003F2C3988C1F30901398070473F2C0A8858
:10312000C2F309020A8070477069316920447061F6
:10313000306A81427047B5F85010491901EB02110D
:103140007047B5F850104F19317807EB011707F2A7
:103150000C477047B5F850004719307807EB001757
:1031600007F2044770477169A3B2284672E0B5F8C8
:1031700050004719307807EB001707F20C477047EB
:1031800010B50A78497830F82240002948F28003C7
:1031900005D048F6BF710C4084F0100404E04BF6F3
:1031A0008F710C4084F48054234320F82230002097
:1031B00010BD30B50A7B002A36D14A780C78002A37
:1031C00030F8242048F2800348F68F7516D0520656
:1031D00008D530F82420154045F4004545F0C005D9
:1031E00020F82450CA78012A1ED00A7830F82240EC
:1031F00048F6BF710C4084F0200412E0520408D558
:1032000030F82420154045F4404545F0800520F86D
:1032100024500A7830F822404BF68F710C4084F429
:103220004054234320F82230002030BD11B98021C2
:10323000A0F84C1000207047002070470020704715
:10324000B0F844007047002070470A40A0F84020C2
:103250000020704710B500EB42005B1C00F5806059
:103260005B0807E00A784C7842EA0422891C20F8BF
:10327000042B5B1EF6D110BD10B500EB420000F52B
:1032800080605A0806E030F8044B0C70240A4C7039
:10329000891C521EF7D1DA0744BF0088087010BDA0
:1032A0000901020002D4294881547047284B02F0DA
:1032B0000F021A4402F8041C7047264B19684FF697
:1032C000FF020002114000F4E06008432249084375
:1032D0001860704770B51F4B1C68C4F302230124AB
:1032E000C3F10705052D2EBF0F2504FA05F56D1E48
:1032F0001E1D072E34BF0023DB1E2940994004FA0F
:1033000003F3BDE870405B1E1A401143C8E701009B
:1033100007D4012200F01F01104B8A40400943F8F6
:103320002020704710B5401EB0F1807F01D30120EE
:1033300010BD0B4C60600F214FF0FF30FFF7B0FF66
:103340000021A16007202060002010BD00E400E003
:1033500018ED00E00CED00E00000FA0500E100E0EF
:1033600010E000E038B508B9022032BD00F527743E
:10337000A3690BB10025A56101B161610121217033
:103380000270FFF70CFA002032BD0246002011B196
:10339000C2F8B41270470220704780B5FFF73CFABC
:1033A000002002BD10B5D0F8B42202241AB1126870
:1033B000904700B90024204610BD80B5D0F8B42253
:1033C00053680AE138B5044604F52A75284600F02A
:1033D00066FB04F5257001210160428B017D42608E
:1033E00011F01F0003D002280BD005D30EE02946B0
:1033F000204600F067F90DE02946204600F098FAD3
:1034000008E02946204600F0B9FA03E001F0800107
:1034100000F040F8002032BD38B5044610460A00DE
:1034200004F5257329D1196803291ED104F5B0715B
:103430004A680D68AA420BD2AD1A0D60954238BF9A
:103440002A46014692B2204600F085FB002032BD9C
:10345000196A086928B1187A032802D10969204637
:103460008847204600F07FFBF0E70529EED10020D9
:103470001860002100F00EF8E8E71A6A906930B190
:10348000187A032803D1926920469047DEE702208C
:1034900032BD80212046FFF7D8B938B50446080070
:1034A000134604F5257543D12868022833D1226AD2
:1034B000616A914207D2521A2262194692B220469C
:1034C00000F037FB11E0E269B2FBF1F001FB1020E4
:1034D00090B98A4210D3686882420DD2002200213E
:1034E000204600F026FB0020686000230022002117
:1034F0002046FFF7D1F914E0296AC86828B1287A74
:10350000032802D1C96820468847FFF7C2FF20463A
:1035100000F030FB05E0042818BF002801D1FFF7B8
:10352000B8FF287B012804BF00212973002032BD89
:103530002A6A506930B1287A032803D1526920469B
:103540009047F3E7022032BD38B5044640230022FD
:103550000021FFF769F904F5AC70012140220160F8
:10356000C2604023002280212046FFF75DF9012040
:10357000402104F52572A061616210720021116082
:1035800061600025506A156128B1126A616853684C
:10359000C9B220469847002032BD01740020704710
:1035A00000F52770042201784170027000207047F6
:1035B00000F527700178042904BF417801700020CC
:1035C000704780B500F527710A78032A03D189690D
:1035D000C96901B18847002002BD9847002002BD9B
:1035E00080B500F0CFFA00F0FDFA00F00FF800F01F
:1035F00005FB00F025FB00F074FB00F039FB00F048
:1036000047FC00F01BFD00F05DFCFEE718B593B031
:10361000282109A800F032FD1421684600F02EFD93
:1036200005A8002100220023002480E81E000121BB
:1036300009910B924FF480310A91119101230222DA
:103640004FF4E0110D931092129109A800F01AFDA9
:1036500008B100F01BF8022101910F204FF48061A6
:1036600000900391029404940221684600F094FEB5
:1036700008B172B6FEE710210591089405A800F084
:103680004DFF08B172B6FEE714B010BD72B6FEE78A
:1036900030B528240D0605D501F007016143084423
:1036A000283003E06143084400F5B4701AB90021E2
:1036B0000173C38004E0038101211B0C017343816A
:1036C000002030BD2DE9FC410E460546307810F053
:1036D000600005F5277708D0202818BF402824D19E
:1036E000BA69936828469847ACE0717809291CD8D4
:1036F000DFE811F0FD00120188000C0188008D0048
:103700000A008800E800AB000022ADF800207088B5
:10371000010A012970D0022961D003292CD0062981
:1037200022D0072904BF287C00286BD1B9690A6B15
:103730006846904707214170BDF8001081B1F188BB
:10374000002910D0BDF80010F288914288BF1146C0
:10375000ADF800100146BDF80020284600F0E1F960
:10376000F08800286ED19FE0287C00284AD1B969F2
:103770004A6B68469047DFE7C0B2052842D8DFE8C9
:1037800000F0272019120B0378698269002A39D0CA
:10379000287C69469047CFE77869426992B3287CD4
:1037A00069469047C8E7786902695AB3287C694638
:1037B0009047C1E77869C26822B3287C6946904780
:1037C000BAE778698268EAB1287C69469047B3E72E
:1037D00078694268B2B1287C69469047ACE7287C9A
:1037E000B9690028684604D1896A88470222427074
:1037F000A2E7C96A8847F9E77A69287C13686946AD
:10380000984799E73146284600F05DF91AE0B088FC
:10381000002804BFF0880028F4D17488802CF1D2ED
:103820003878032804F07F04ECD0BC702146284689
:10383000FFF726F8284600F096F9002C0CBF01206F
:10384000022038700020BDE8F681DFF8E080708843
:1038500088F8000098F8004021460229D2DA38782A
:10386000022818D0032823D134B9022038706960A7
:103870002846FFF7A2FD17E069688C4214D0C9B250
:103880002846FFF79AFD6C6021462846FFF78AFD1F
:10389000022809D1B6E73CB16C6003203870284695
:1038A000FFF780FD0228ADD0284600F05CF9C9E79B
:1038B0003146284600F007F998F800102846FFF72F
:1038C0007CFDBFE7F08801289CD13978491E012989
:1038D00007D9891E96D10122291D284600F021F919
:1038E000B0E70020A860012205F10801F5E738786B
:1038F000401E022886D8F288022A83D1B8680121A6
:1039000000B10321E96005F10C01E6E770880128A8
:1039100098D10121B960C7E73878401E0228ECD859
:103920007288012A8ED10020B860BDE7A131002045
:1039300038B50D460446287810F060001CBF2028DA
:10394000402816D104F527721078401E022810D89E
:103950002B79022B0DDA926993682046984701462D
:10396000E888002808BF002906D1204600F0FBF8AF
:1039700002E0204600F0A7F8002032BDF8B50A7832
:103980000446087912F0600504F5277308D0202D4D
:1039900018BF402D66D19A6993682046984764E025
:1039A00002F06002202A05D19A6993682046BDE89A
:1039B000F44018474A7882B3012A11D0032A51D122
:1039C0001B78022B12D0032B4CD14A880ABB00284B
:1039D00018BF80281DD0C988D9B900F05CF818E05C
:1039E0001A78022A02D0032A0AD03BE0002818BF26
:1039F000802837D000F04FF8802100F04DF834E0F7
:103A00004A8892BB10F07F0103D001462046FEF7A2
:103A100022FF204600F0A7F827E0142600F07F02DE
:103A20001B787243A718022B07F5AA7500F08002D5
:103A300002D0032B0FD015E0002818BF802811D129
:103A40000AB107F114050020286002222946204609
:103A500000F067F809E000F00F035E43A31932B1EC
:103A60009A696AB9204600F02EF80020F2BDD3F81A
:103A70005821002AF6D0002818BF802803D1E2E799
:103A800007F11405F7E701462046FEF7EAFE002895
:103A9000DAD00120D8E701462046FEF7D6BE0A78E4
:103AA00002704B7843708A78CB7802EB0322428015
:103AB0004B790A7902EB032282808A79C97902EB79
:103AC0000122C280704710B504468021FEF7BDFE7A
:103AD0002046BDE810400021FEF7B7BE00280B4687
:103AE00000D1704770B50146002400E0641C11F855
:103AF000015B002DFAD12406E40DA41C148011787A
:103B0000197003225A70022207E010F8011BD4B288
:103B1000521C1955D6B2521C9D5501780029F4D17A
:103B200070BD80B513460222C0F89422C3610362BF
:103B300001E080B513460A460021FEF7A7FE0020EB
:103B400002BD80B513460322C0F8942200F5AE7280
:103B50001360536001E080B513460A460021FEF76A
:103B60009BFE002002BD80B50421C0F89412002302
:103B70000022E1E780B50521C0F89412002300225D
:103B8000ECE7000080B50748016841F010010160D2
:103B90000320FFF792FB0F2000F034FD00F052FDF0
:103BA000002002BD002002401249012008700A22B4
:103BB0001149642081F81624A1F817044FF480629B
:103BC0000020A1F80D20A1F80F00487401224FF445
:103BD000FA7048820A734FF400700022401E8A82F5
:103BE000FCD1704703490878002808BFFFF7DCBF05
:103BF00070470000A0310020681E00200F4881B0EF
:103C0000016841F020010160026802F02002009288
:103C10000099026842F004020260036803F00403A2
:103C200000930099026842F008020260006800F008
:103C300008000090009801B0704700BF18100240C3
:103C400080B50A48016841F0010101600022006866
:103C500000F001000090052100980D20FFF73AFBCD
:103C6000BDE802400D20FFF752BB00BF1410024018
:103C700018B58DB000F088F800F081F800F07AF8FF
:103C80007A4C7B482060002140F27710E060616050
:103C90008020A061A1602161204600F0F9FC08B1FC
:103CA000FFF7F4FC00F075F808B1FFF7EFFC2046D1
:103CB00000F0FBFC08B1FFF7E9FC00F071F808B177
:103CC000FFF7E4FC002102910391049106910C227C
:103CD00002A9204600F01AFD08B1FFF7D7FC0EB08C
:103CE00010BD18B58DB000F04FF800F048F800F0A6
:103CF00041F8604C6048206000214FF4B470E060EF
:103D00006160A1602161A161204600F0C1FC08B1A1
:103D1000FFF7BCFC00F03DF808B1FFF7B7FC204608
:103D200000F0E3FC08B1FFF7B1FC00F039F808B18E
:103D3000FFF7ACFC602102914FF4807203920021E6
:103D400004910022069202A9204600F00CFD08B161
:103D5000FFF79CFC4FF440700390042202A9204618
:103D600000F001FD08B1FFF791FC204600F057F884
:103D70000EB010BD1C22002102A800F0BDBE08221A
:103D80000021684600F0B8BE1022002109A800F00A
:103D9000B3BE4FF48050099009A9204600F045BDFC
:103DA0000021009101912046694600F0AFBE38B570
:103DB00000F056F826D10868304D40F00200086047
:103DC0001022096801F00201009100982C49296035
:103DD00000208021E960A8604FF480616A60696119
:103DE0004FF48070286120224FF44051AA61E961AC
:103DF000284600F0BDFE08B1FFF748FC25636C6261
:103E0000256231BD1C4A904208D1086840F0040088
:103E10000860096801F004010091009831BD18B5EF
:103E200085B004461022002101A800F065FE21683B
:103E30001148814212D11348016841F00801016024
:103E4000C021006800F008000090022200980E488F
:103E500001910292049201A900F07AFF06B010BD10
:103E60000446034A20680949904270477C3000208C
:103E700000040040C4300020000800400C31002045
:103E80003000024018100240000C01401C1002409B
:103E9000EFF30580002804BFEFF31080002807D15E
:103EA000DFF85C110868022803D1EFF3118000B13C
:103EB00082E0086810B901220A6070474FF0FF30B5
:103EC0007047000080B500F09EF804BFEFF310804B
:103ED000002807D1DFF828110868022803D1EFF382
:103EE000118000B109E00868012805D102220A60AA
:103EF00001F02DF9002002BD02E06FF0050002BDC7
:103F00004FF0FF3002BDF0B585B000230493EFF30E
:103F10000583002B04BFEFF31083002B49D1DFF89A
:103F2000E0301C68022C03D1EFF31183002B40D149
:103F300003003ED00023802518268DF80C3003ACFA
:103F40005AB3136803B11C4693691BB11E0004D019
:103F5000392E02D21379DF0701D500202AE05369F8
:103F600003B19D08D2F80CC0976887B1BCF15C0F13
:103F70001FD31269002A18BF002B1AD001920B46DA
:103F8000029700962A46214600F0CAFF10E0BCF1D5
:103F9000000F04BF1269002A0BD104AB01930096F5
:103FA0000B46AAB2214600F0EBFF012801D0002009
:103FB0000490049805B0F0BD6FF00500704710B58F
:103FC00000F015F804BFEFF31081002905D100F0CF
:103FD00012F805D1EFF3118111B16FF0050403E080
:103FE000002408B101F099F8204610BD0025EFF338
:103FF00005810029704702490A68022A70470000BB
:10400000983100200446EFF3058000287047094BE3
:10401000036003F15C000860802111607047064B6B
:10402000036003F15C0008604FF480711160704719
:1040300000000000382800200C1A002038B5084D78
:104040000FF229002A460021064CFFF75CFF206092
:1040500005F1240200210448FFF755FF606031BDDF
:10406000F8690008903100200568000880B501F06B
:1040700009FB0120FFF7A3FFFBE70000002201F08E
:104080002FBB00002DE9F843040016D02078DFF89C
:104090004C64C10713D5706800F00C00042807D0E9
:1040A000706800F00C00082841D17068C1033ED54B
:1040B0003068810303D56068002800F064812078AF
:1040C000DFF82874810719D5706810F00C0F07D03D
:1040D000706800F00C00082861D17068C1035ED4DC
:1040E0003068810703D52069012840F04C81316890
:1040F000606921F0F80141EAC001316021780807C8
:1041000040F18180A069DFF8E813002800F0A68064
:1041100001220A6001F0FEFA0546706A810763D445
:1041200001F0F8FA401B0228F7D903202EE160685D
:10413000B0F5803F04D1306840F48030306014E046
:1041400008B930680AE0B0F5A02F306806D140F415
:1041500080203060316841F4803105E020F4803007
:104160003060316821F480213160606858B101F01D
:10417000D1FA054630688103A1D401F0CBFA401B87
:104180006528F7D3D1E701F0C5FA05463068810309
:1041900095D501F0BFFA401B6528F7D3C5E7206924
:1041A000A8B10121396001F0B5FA054630688107F0
:1041B00005D401F0AFFA401B0228F7D9B5E7306803
:1041C000616920F0F80040EAC100306096E738608D
:1041D00001F0A0FA0546316888078FD501F09AFAF8
:1041E000401B0228F7D9A0E7DFF8F4020168C908EC
:1041F0004FF47A72B1FBF2F2009200BF0098411EB8
:1042000000280091F9D1207841076ED5F06900258A
:10421000C10009D4F06940F08050F0610125F069D7
:1042200000F0805000900098DFF8C882D8F80000B5
:10423000C10520D4D8F8000040F48070C8F8000010
:1042400001F068FA8146D8F80000C10513D401F0E6
:1042500061FAA0EB09006528F5D366E7086001F074
:1042600059FA0546706A8107CDD501F053FA401B13
:104270000228F7D959E7E068012808D008B9306A60
:1042800009E00528306A06D140F004003062306A47
:1042900040F0010005E0400840003062306A20F044
:1042A0000400306241F28938E06860B101F032FA0E
:1042B0008146306A810713D401F02CFAA0EB090083
:1042C0004045F6D331E701F025FA8146306A81078F
:1042D00006D501F01FFAA0EB09004045F6D324E70C
:1042E0001DB1F06920F08050F061E06900284CD0E9
:1042F000716801F00C01082938D002282AD100F099
:1043000047F805463068810105D501F003FA401BE6
:104310000228F7D909E7206AB0F5803F05D1716816
:10432000A06821F40031014371607268206A616AFB
:1043300022F4741202430A437260012000F029F84B
:1043400004463068810120D401F0E4F9001B022802
:10435000F7D9EAE600F01CF804463068810114D56C
:1043600001F0D8F9001B0228F7D9DEE601280AD0AF
:104370007068226A00F48031914202BF00F470102C
:10438000616A884201D0012000E00020BDE8F2838C
:104390000020386601F0BEB92DE9F04104008846DE
:1043A0004ED0554E00F077F802D200F06FF847D1AA
:1043B00020684A4D810712D5400703D5696841F44A
:1043C000E06169602078010703D5686840F46050B7
:1043D00068606968A06821F0F00101436960217894
:1043E000C80725D56068012802D129688A0303E03F
:1043F0000228296802D18A0102D421E08A071FD548
:104400006968890840EA8100686001F083F907461D
:104410006868616800F00C00B0EB810F08D001F013
:1044200079F9C01B41F289318842F1D303202BE096
:10443000306800F00700804504D200F027F801D072
:10444000012021E02078410705D56A68E06822F460
:10445000E06202436A602178080706D5696820692E
:1044600021F4605141EAC001696000F019F86A68FE
:1044700022491B4BC2F30312895CC84018601A48DA
:10448000006800F0BFF80020BDE8F0813168C9087D
:1044900048EAC1013160306800F0070040457047CC
:1044A000174910480A6802F00C03082B00D0704727
:1044B00010B500BF14A4C2F38343D203E35C08D554
:1044C0000968584314A3C1F340415A5CB0FBF2F0B1
:1044D00010BD18460B49484310BD000000100240B3
:1044E0001800002000127A00140000200000424250
:1044F0008004424200700040002002405C6B0008D3
:104500000410024000093D000203040506070809E3
:104510000A0B0C0D0E0F1010010200002DE9FC41DA
:104520000646354D3078C10750D5A8690024C10032
:1045300009D4A86940F08050A8610124A86900F05E
:104540008050009000982D4F3868C10511D438680C
:1045500040F48070386001F0DDF880463868C105AD
:1045600007D401F0D7F8A0EB08006528F6D30320A4
:104570003FE0E86910F440701EBF716801F44071BB
:10458000884218D01E49E86901220A60002320F4FD
:1045900040700B60E861C0070DD501F0BBF807461D
:1045A000E869810707D401F0B5F8C01B41F28931F1
:1045B0008842F5D3DBE7EA69706822F4407202436F
:1045C000EA611CB1A86920F08050A86130788107A9
:1045D00005D52A68B06822F4404202432A60317847
:1045E000C80605D52968F06821F4800101432960D7
:1045F0000020BDE8F6810000041002400070004079
:104600004004424238B50D4D0D4B2A7804464FF414
:104610007A711868B1FBF2F2B0FBF2F0FEF782FE9D
:1046200050B9102C08D2002221464FF0FF30FEF77F
:1046300051FEAC60002032BD012032BD0C000020D4
:104640001800002080B51048016841F001010160A8
:10465000026802F0010200920099426842F0805222
:1046600042600022406800F0805000900F210098C6
:104670006FF00100FEF72EFE0448016821F0E061B2
:1046800041F00071016001BD1810024004000140BA
:1046900038B5040001D1012032BD00F033F818B95B
:1046A00000F021F9FFF783FB0BE038B5040001D1DE
:1046B000012032BD00F026F818B900F014F901F01D
:1046C0002FF802206870211D206800F010F90120E9
:1046D000A8720121A970E87029716871A971E87147
:1046E000297268726970002032BD38B5040001D1AA
:1046F000012032BD00F006F818B900F0F4F801F01E
:1047000010F8DEE704F13C056878704738B50446D8
:10471000002594F83C00012801D1022032BD01207F
:1047200084F83C0032B1042A08D0082A0AD00C2AA6
:104730000CD00FE0206800F009F90CE0206800F0D0
:104740002AF908E0206800F04FF904E0206800F042
:1047500073F900E0012500F001F832BD002084F873
:104760003C002846704770B500F058F801D102208F
:1047700070BD012084F83C0032B1042A15D0082A0B
:1047800025D00C2A34D045E0206800F0DFF82168FD
:10479000886940F008008861886920F00400886119
:1047A0008A69306902438A6135E0206800F0F3F8D5
:1047B0002068816941F400618161816921F480612F
:1047C00081618169326941EA0221816123E02068C7
:1047D00000F00AF92168C86940F00800C861C8699A
:1047E00020F00400C861CA6930690243CA6112E05E
:1047F000206800F021F92068C16941F40061C161BD
:10480000C16921F48061C161C169326941EA022153
:10481000C16100E00125FFF7A1FF70BD044600253E
:1048200094F83C0001280E46704770B5064606F124
:104830003C0500242878012801D1022070BD012008
:10484000287002226A70DFF83002326893680340F1
:1048500093600868020018BF102830D0202818BFC5
:1048600030282CD0402826D0502819D060281BD0C2
:10487000702806D0B0F5805F27D0B0F5005F07D074
:1048800022E000F02BF83068816841F0770105E004
:1048900000F024F83068816841F48041816014E0C0
:1048A00000F018F850210BE0CA684968306800F041
:1048B000FCF8602104E000F00DF8402100E0014622
:1048C000306800F004F900E001240120687000F075
:1048D0000AF870BDCA6849683068D7E0CB684A6892
:1048E00089683068FBE0002129702046704770B568
:1048F0000368624E624C634DB04218BFB0F1804F06
:1049000003D0A84218BFA04209D14A6823F070031F
:104910001343B0421CBFB0F1804FA84201D0A04267
:1049200003D1CA6823F4407313434A6923F0800318
:1049300013430360B0428B68C3620A68826202D18B
:104940000969514A11600123436170BD70B5066A5F
:10495000026A52085200026226F002064468856923
:104960000B688A6825F073051D431643434B984234
:104970000BD1CA684B6926F0080624F4407416432C
:104980008A691C4326F00406144344608561496823
:104990004163066270BD70B5056A026A374E22F047
:1049A0001002026225F02005436884690A6824F435
:1049B000E64444EA02248A68B04245EA02150DD171
:1049C000CA684E6925F0800545EA02158A6923F414
:1049D0004063164325F0400543EA86034360846143
:1049E00049688163056270BD70B5056A026A22F488
:1049F0008072026225F400754368C4690A688E6893
:104A000024F0730414431D4A904245EA06250DD153
:104A1000CA684E6925F4006545EA02258A6923F4CF
:104A20004053164325F4806543EA06134360C4618E
:104A30004968C163056270BD70B5046A026A0F4EB1
:104A400022F48052026224F400544268C3690D6863
:104A500023F4E64343EA05238D68B04244EA053473
:104A600004D14D6922F4804242EA85124260C3615A
:104A700049680164046270BD8800FFFF002C01409A
:104A80000008004000040040302C014010B5036ACB
:104A9000046A64086400046223F00A03846924F051
:104AA000F00444EA0214846123E010B5036A046A46
:104AB00024F01004046223F0A003846924F47044F9
:104AC00044EA0234846143EA0113036210BD826840
:104AD00022F07002114341F007018160704710B568
:104AE000846824F47F442143114341EA0321816017
:104AF00010BD1943016210BD10B5044610460A46A8
:104B00000146204600F00EFE204610BD70B500F1B3
:104B10003C031A78012A01D1022070BD01221A70CB
:104B200002245C7005686E68AC680A6826F070063E
:104B300016436E6002680B48824218BFB2F1804F84
:104B400005D0094882421CBF084DAA4204D14868DA
:104B500024F08004044394600121597000201870EF
:104B600070BD0000002C014000040040000800401F
:104B700030B508B9012030BD0268DFF8B0118A18DD
:104B8000142400F13803B2FBF4F4A400DFF8A01100
:104B90009C605960022280F8212001680C684168FD
:104BA000826805686FF30D140C43C16814430269F1
:104BB0000C434169144382690C43C16914430C439B
:104BC0002C6000221A60012380F8213080F8202018
:104BD000002030BD2DE9F84F00F12802042751696B
:104BE000594BD1F800E0056858492E68D2F818A052
:104BF000544CDFF84C81DFF84491DFF83CB1DFF82A
:104C000034C107FA0AF71EEA070F31D077072FD50C
:104C1000D5F800E05FEA8E6605D4D5F800E02EF006
:104C2000040EC5F800E00568654508BF042318D0E8
:104C30005D4508BF402314D04D4508BF4FF4806345
:104C40000FD0454508BF4FF480430AD0A54208BFA6
:104C50004FF4802305D09D420CBF4FF480034FF0EA
:104C600080630B60516800295DD0BDE8F44F0847B0
:104C7000022707FA0AF71EEA070F36D0B70734D51E
:104C8000D5F800E05FEA8E6608D4D5F800E02EF093
:104C90000A0EC5F800E0012580F821500568654539
:104CA00008BF022318D05D4508BF202314D04D450E
:104CB00008BF4FF400730FD0454508BF4FF40053B1
:104CC0000AD0A54208BF4FF4003305D09D420CBF67
:104CD0004FF400134FF000730B60002180F8201098
:104CE000116801B3BDE8F44F0847082101FA0AF141
:104CF0001EEA010F17D0310715D52B6823F00E03DC
:104D00002B600124916953698C405C600121116121
:104D1000012380F82130002180F82010916811B122
:104D2000BDE8F44F0847BDE8F18F0000F8FFFDBF74
:104D300000000240080002401C0002403000024017
:104D400044000240580002406C000240040002404F
:104D50002DE9F8474FF0000E0024644A644BDFF859
:104D600094814FF00F0982460DE0176838401060BB
:104D700007E0C2F804C04D68ED03F6D5106807439C
:104D800017600EF1010E0F6837FA0EF000F0AC80DC
:104D9000012000FA0EFC0CEA07076745F1D14868CC
:104DA00038B301281AD002281DD003282ED011288C
:104DB00016D012281AD0504DA8421CBF4F4DA84201
:104DC00017D04F4DA8421CBF4E4DA84211D04E4D9A
:104DD000A8421CBF4D4DA8420BD018E0CC6816E08D
:104DE000CC68241D13E0CC68083410E0CC680C3487
:104DF0000DE0886808B9042409E0012819BF0824D7
:104E0000CAF814C00824CAF810C000E00024B7F59E
:104E1000807F03D250464FEA8E0C05E0AEF10805C4
:104E20000AF104004FEA850C056809FA0CF6B5434F
:104E300004FA0CF646EA050CC0F800C04868C00049
:104E40009FD5D8F8000040F00100C8F80000D8F85D
:104E5000005005F0010500954FEA8E0500984FEAD5
:104E60009E0053F8206005F00C0C09FA0CF526EAB8
:104E70000505274EB24508BF00260ED0254EB24587
:104E800008BF012609D0244EB24508BF022604D02F
:104E9000224EB2450CBF0326042606FA0CF646EA5B
:104EA000050C43F820C0F8434D68D2F808C0ED0265
:104EB0004CBF47EA0C0C00EA0C0CC2F808C04D6865
:104EC000D2F80CC0AD024CBF47EA0C0C00EA0C0C47
:104ED000C2F80CC04D68D2F804C0AD034CBF47EA1D
:104EE0000C0C00EA0C0C44E7BDE8F187000401401B
:104EF00008000140181002400000111000001210BC
:104F000000002110000022100000311000003210BB
:104F100000080140000C0140001001400014014055
:104F2000F0B585B050260B9D25B986F3118800F0A9
:104F300043FAFEE70C9C24B986F3118800F03CFA92
:104F4000FEE75C270097DDF800E0BEF15C0F04D0BF
:104F500086F3118800F030FAFEE72563002602256B
:104F600084F8595004AF0A9D039602940197009566
:104F700000F034F8204600F078F8049805B0F0BD51
:104F80002DE9F8430646174684B088469946B8008E
:104F900000F0D2FB05001CD05C2000F0CDFB04002B
:104FA00014D00020256384F85900039002940D98D2
:104FB0000C99019000914B463A464146304600F02C
:104FC0000DF8204600F051F8012004E0284600F0DA
:104FD00039FC4FF0FF3005B0BDE8F0832DE9F04714
:104FE0000A9D81460C461746286B9846A522B900B3
:104FF00000F072FB296B01EB8702171FFF08FF000F
:105000000021625C6B1883F83420605C10B1491C8D
:105010001029F6D3089E002085F84300372E88BF5C
:105020003726099CEE6205F14C0ACAF80400CAF85A
:105030000060281D00F061FC05F1180000F05DFC27
:105040002D61C6F13806AE616D620020CAF8080015
:1050500000218AF80C1042464946384600F08AFC86
:10506000286004B12560BDE8F0872DE9F04100F02B
:105070006BF8DFF87855DFF87885E86C401CE86459
:105080001426A86A28BBAC62E86C012829D1002745
:1050900006FB07F0404400F023FC7F1C382FF7D3B9
:1050A00005F1740000F01CFC05F18807384600F09B
:1050B00017FC284600F014FC05F1140000F010FC69
:1050C00005F1380000F00CFC05F17400E8622F6374
:1050D00007E0A86D28B9E06AA96ACA6A904228BFA9
:1050E000AC62A86EE26A401C6064696D914238BF90
:1050F0006A65A8665643211D08EB060000F000FC17
:1051000000F0B1FCA86D30B100F0A2F903D200F0BC
:1051100078FA00F051F9BDE8F08180B588B1DFF888
:10512000CC24116F21B100F02EF900F045F9FEE713
:10513000116F491C1167002100F06EFA00F044F86D
:1051400008B900F034F901BD044600F073BC80B525
:1051500086B000210591049103AA04A905A8FEF7D1
:1051600056FF0598049902900022009201910023B5
:10517000039A0FF208510FF26130FFF7D1FE98B198
:1051800000F0BAFC5021012810D181F3118800F001
:1051900013F9DFF8D4044FF0FF31C16601228265B4
:1051A0000021016500F004FC07B000BD10F1010F03
:1051B000FAD181F3118800F0FFF8FEE7DFF8A804C8
:1051C000016F491C0167704770B5DFF82064306FCC
:1051D0000024002520B900F043F800F0EDF8FEE7C8
:1051E00000F028FC306F401E3067306F002836D149
:1051F000F06CD0B933E0F068C46800F035F800F026
:10520000BBF9E06A716D814238BF70651423DFF825
:105210005C245843211D104400F072FBE06AB16A1F
:10522000CA6A904224BF0121316630680028E2D169
:105230000CB100F088F9F46D44B100F01DF808B12C
:1052400001203066641EF8D10020F065306E30B168
:10525000DFF81C144FF08050012500F0ACF8C9E1D4
:10526000502181F31188704704F1180000F06EBBE3
:10527000DFF8F403006D70472DE9F843DFF86C7335
:10528000386F002600284FD13C6D641C3C6510D15E
:10529000F86A006820B1FFF7E3FF00F08DF8FEE741
:1052A000F86A396BF9623863786E401C786600F0F2
:1052B0004AF9F86EDFF8B49384424FF0140827D30C
:1052C0001FE0F96AC868C568686884422AD3281D47
:1052D00000F03CFBA86A18B105F1180000F036FB9D
:1052E000E86A796D814238BF786508FB00F0291DB6
:1052F000484400F005FBE86AB96ACA6A904228BFD0
:105300000126F86A00680028DBD14FF0FF31F9660A
:10531000B86AC06A08FB00F859F80810022906D3D9
:10532000012604E0F866F3E7F86D401CF865386E76
:1053300000B1012662E110B5DFF8B022106F10B1A4
:105340000121116610BD1066516DDFF8203300E0B9
:10535000491E14244C43185930B90029F8D100F0E3
:1053600012F800F029F8FEE7181900F10804436864
:105370005B684360A34204BF5B6843604068C368E6
:105380009362516510BD502080F31188704710B5AD
:105390000C4620B9FFF7F7FF00F00EF8FEE700F02B
:1053A00027F800F0BAFA2046BDE8104009E0DFF81F
:1053B000C0124FF080500860BFF34F8FBFF36F8F64
:1053C0007047012128E138B50D46144620B9FFF792
:1053D000DAFFFFF7F1FFFEE700F00AF800F090FABD
:1053E0000CB14FF0FF3521462846BDE8344013E1AB
:1053F000DFF87422936A03F11801704738B5C0686A
:10540000C46824B9FFF7BFFFFFF7D6FFFEE7FFF739
:105410002BFFDFF85452286F40B900F0ADF800F0D0
:1054200013F838BF6A6500F0F1F802E004F11801E2
:10543000284600F065FA00F00BF803D20121296636
:10544000012032BD002032BDE26A686D9042704793
:10545000A86AC16AE06A81427047DFF80C124A6E9E
:105460000260096D41607047F8B504460D46502052
:1054700024B980F31188FFF79FFFFEE725B980F379
:105480001188FFF799FFFEE700F0D4FADFF8D801A2
:10549000016D62682E688B1A16F1010F0ED0476EEF
:1054A000D4F800C0674501D091420BD2B34207D275
:1054B000F31A2B60416E2160006D6060002402E0F1
:1054C00000202860012400F0CEFA2046F2BDDFF86B
:1054D000981101200866704770B5454CDFF8885177
:1054E00011E000F0A7FA286AC668301D00F02EFA15
:1054F000E86C401EE864686B401E686300F0B3FA15
:10550000304600F009F8686B0028EAD121680229CA
:10551000F9D3FFF74CFFF6E710B5044694F85900AD
:1055200040B9206B00F08EF92046BDE8104000F035
:1055300089B910BD0128F7D00228FAD0FFF723FF60
:10554000FFF73AFFFEE72949C86A006810B94FF033
:10555000FF3203E0C86AC268D0684268CA66704712
:10556000DFF80411886D08B901207047086F08B989
:105570000220704700207047201D00F0E7B938B5C1
:105580000446002134B3DFF8E050A86A5022844278
:1055900004D082F31188FFF70FFFFEE7206D20B9DA
:1055A00082F31188FFF708FFFEE7E26AE36C401E12
:1055B0009A4220650ED068B9FFF7DEFFE06CE0622A
:1055C000C0F13800A061FFF73FFF38BF6A6500F007
:1055D00003F80121084632BD1420DFF89030424321
:1055E000211D981800F08CB900000000E02F002069
:1055F000AC15002000F037FA284670BD3046BDE8F3
:10560000F2831B4A4FF08051116070471420174BF2
:105610004243211D98187047F8B5134D2F6D0C4665
:10562000A96A0646081D00F091F916F1010F05D18F
:1056300024B1A86A011D05F138001BE0A86AF6191B
:105640004660BE42A86A05D2011D286BBDE8F44041
:1056500000F063B9011DE86A00F05FF9E86E864268
:1056600038BFEE66F1BD0000E02F0020AC15002031
:1056700004ED00E0BDE8F44000F042B949444C4577
:105680000000000010B5104C104900222046FDF724
:1056900069FE08B1FDF7FAFF0D492046FDF775FEDA
:1056A00008B1FDF7F3FF0B49204600F0D9FC08B123
:1056B000FDF7ECFF2046FDF770FE18B1BDE8104085
:1056C000FDF7E4BF10BD00BF742500203C010020A1
:1056D000280000202C01002062F30F2262F31F42F9
:1056E00000B500BF130096469446103928BFA0E8C5
:1056F0000C50FAD85FEA417C28BF0CC048BF40F884
:10570000042BC90728BF20F8022B48BF00F8012B43
:1057100000BD000001484068704700BF0C00002039
:10572000704770474018491C1CBFB1F1010100F8D7
:10573000012DF9D1704700002DE9F8430446FFF729
:105740003DFD664FB8684FF00009002508BB07F122
:10575000180307F1180113F0070F4FF440600A46D1
:1057600005D0CA1DD208D200C2F5406008188018C2
:105770000838C008C0003A607D60B86045600560C8
:10578000831A5360106050683861F8604FF0004031
:1057900078614FF050087869044243D1002C41D021
:1057A000083414F0070F04D004F1080004F00704D3
:1057B000041B002C36D0F868A04233D33E6839462B
:1057C00001E0314606467068A04202D230680028E7
:1057D000F7D1B868864225D00A683068086002F1BF
:1057E00008097268121B112A0CD3311911F0070035
:1057F00002D000F020F8FEE7301D02517460084628
:1058000000F047F87168F8683C69401AF860FA6877
:10581000A24288BF224678693A61014371603560CF
:1058200009F00705FFF7D0FC15B100F004F8FEE71A
:105830004846BDE8F28388F31188BFF34F8FBFF36A
:105840006F8F7047002800D1704738B5A0F1080469
:10585000224D61686A695023114204D183F3118893
:10586000FFF7EBFFFEE7206820B183F31188FFF715
:10587000E4FFFEE791436160FFF7A0FCE968606820
:105880004118E960204600F004F8BDE83140FFF718
:105890009BBC30B511490A4600E01A4613688342A2
:1058A000FBD35368D418844203D14068C3185360B3
:1058B000104643681468C518A54208D189688C420F
:1058C00004D06168CB184360246800E00C46046093
:1058D000824218BF106030BD00000000C4010020EB
:1058E0004FF0FF3200F1080182604160C16000F1B9
:1058F00008020261002101607047002101617047C8
:1059000010B542684A6093688B60946861609160EA
:1059100008610168491C016010BD30B50A6812F1C8
:10592000010F08BF036907D000F1080300E0234618
:105930005C682568AA42FAD25A684A6091608B6016
:10594000596008610168491C016030BD4368016904
:1059500082689A60836842685A604A68824204BFDB
:1059600083684B60002202610868401E0860086876
:1059700070470000490810B54900A0F10C034FF032
:10598000807459609C600FF20D01196040F8202D61
:10599000203810BD52494A68502012F1010F80F39F
:1059A0001188BFF34F8FBFF36F8F00D0FEE7FEE784
:1059B0001CB54C490A780192FF230B700C788DF8C6
:1059C00000409DF80000464C00F050002070072079
:1059D00005E09DF800205200401E8DF800209DF843
:1059E00000201306F5D4424212F1030F03D0A06049
:1059F00000F018F8FEE7000200F4E060A0600198F3
:105A000008703948016841F470010160026842F091
:105A10007042026000F064FB0020606000F0A7FBB1
:105A2000002016BD502080F31188BFF34F8FBFF3C5
:105A30006F8F7047502080F31188BFF34F8FBFF3F3
:105A40006F8F27494A68521C012A4A600AD12749A8
:105A50000A68130606D080F31188BFF34F8FBFF397
:105A60006F8FFEE770471E49486838B9502080F3B1
:105A70001188BFF34F8FBFF36F8FFEE7401E486062
:105A800008BF80F31188704780B5FFF7CBFFFFF7A1
:105A9000F3FB18B115494FF080500860002282F3E3
:105AA000118801BD10B5EFF30580502110280C4A74
:105AB00009D30F4B185C1478A04204D281F31188EB
:105AC000FFF7B3FFFEE790680A4A136803F4E06348
:105AD000984204D281F31188FFF7A7FFFEE710BDBB
