:020000040800F2
:10000000103A0020DD520008F1510008F3510008B9
:10001000F5510008F7510008F951000800000000F0
:100020000000000000000000000000000B4A000873
:10003000FB51000800000000C54900082F430008DC
:100040000D530008115300081553000819530008F8
:100050001D530008215300082553000829530008A8
:100060002D53000831530008355300083953000858
:100070003D530008FD510008415300084553000856
:10008000495300084D5300085153000855530008C8
:1000900003520008595300085D53000861530008DB
:1000A0006553000809520008695300086D530008A1
:1000B0007153000875530008795300087D530008F8
:1000C0008153000885530008895300088D530008A8
:1000D0009153000895530008995300089D53000858
:1000E000A1530008A5530008A953000830B5040027
:1000F00085B054D094F8A90228B9002184F8A81238
:10010000204600F0A5FD032084F8A902206800F035
:10011000A4FE83B000F050F80EBC206800F094FEFE
:10012000002839D12068002100F09DFE0021282000
:1001300000250FE000FB01F22244012382F8293060
:1001400082F828100023491C82F82B509363D56352
:100150001364C9B262689142ECD3002111E000FB44
:1001600001F22244002382F8681182F86931491CA7
:1001700082F86B51C2F87831C2F87C51C2F88031F4
:10018000C9B262689142EAD383B000F015F80EBCA0
:10019000206800F06AFE20B1022084F8A902012044
:1001A00008E084F82400012184F8A912206801F0F5
:1001B000F0FA002005B030BD211D6846202201F074
:1001C0001BBB10B500F026FC01D1022010BD00F0D1
:1001D0001DFC206800F03AFE00F00EBC0021204615
:1001E00000F027BE2DE9F04F064687B0306801F0D9
:1001F000D2FA01041AD4420540F1DC8200F09EFBE1
:100200004FF6FF3000F096FB304600F058FD00211D
:10021000304600F004FC51E3012803D100F06AFBF2
:10022000002008802978304600F03CFD3068B0F8A6
:1002300044100A04EFD5B0F8441011F00F020192F7
:1002400048F2800B4BF68F7940F68F7548F60F7A9F
:1002500040F0A680C9062ED4306802880AEA02015E
:1002600041F4004101803068B0F8502096F8281021
:1002700002EBC10200EB420000F204400088F16B87
:10028000C0F3090070640844F0630021304600F0B8
:1002900009FD96F824000028C8D0306C0028C5D18C
:1002A00096F82400316840F08000A1F84C0000204E
:1002B00086F82400BAE7316809880A0515D500F0E8
:1002C0002DFBB6F86E21C3F30903C6F8843106F599
:1002D0002C7101F07CFA306801880D4045F08005F2
:1002E0000580304600F0CEFCA0E708049ED53168BA
:1002F0000A88154045F080050D80306800F00EFB3F
:10030000C3F30903002BC6F884311CBFD6F87C1157
:1003100000290ED0B6F86E2101F059FAD6F87C010A
:10032000D6F884110144C6F87C113046002100F053
:10033000AFFC306800880105D6D400F44050B0F519
:10034000405FD1D03168B1F85020511801F20C4112
:100350000888C0F309000880D6F878013F2808D340
:10036000420910F01F0F088808BF521E40EA822081
:1003700001E018B9088840F4004006E04208C007D0
:10038000088848BF521C40EA8220088030680188F3
:1003900009EA010181F440514BEA0101018045E77E
:1003A0003068114630F82100ADF8020000F040013D
:1003B0008DF8001028210198BDF8024048433118FB
:1003C000029104F48044BDF80200010448F68F78DD
:1003D00040F190803068114630F8210031680540C6
:1003E00045F08005104621F82050029901F5B477B8
:1003F000387B78B93068B0F850103A7801EBC20118
:1004000000EB410300F070FA002D5FD0FA887969A3
:100410002B4659E0F878022848F2C00129D1356806
:10042000B8693A782B46B5F85050002C05EBC20558
:1004300003EB450311D003F204431D88C5F30905FE
:10044000A8422CBF401B002000F0A5FA08B100F024
:1004500041FA002D3AD03A8933E000F045FAA8423B
:100460002CBF401B002000F096FA38BB00F032FA97
:1004700024E000F02FFA38783168024631F8223053
:1004800059040FD53268B2F8501001EBC00102EBED
:10049000410000F204400588C5F30905002D15D080
:1004A0003A890EE03168B1F8502002EBC00201EB4E
:1004B000420000F20C400588C5F30905002D05D067
:1004C0007A892B467969306801F081F9F869281832
:1004D000F8617A692A447A61B86938B13869854225
:1004E00004D33068394600F094FE03E03978304692
:1004F00000F0CEFBBDF80200010660D5029801991C
:1005000000F12805306830F821200AEA020242F49E
:10051000004220F82120E87801282BD1287B0021F7
:100520000028A9610ED09DF8000098B1687850B9F4
:1005300000F008FA0188C1F309010180028842F441
:10054000004202806EE60128FCD100F0FBF9002198
:10055000018067E66878326800287FF45DAE00F0BD
:10056000C9F90888C0F3090008800A8842F40042EB
:100570000A8057E6BDF80200A9693368C2051FD496
:100580002A78B3F8500000EBC20003EB400C0CF2E9
:10059000044CBCF80030C3F309038B4234BFC91AC2
:1005A0000021A96109B911463DE66869E969184465
:1005B00068615B18EB612946306800F02AFE35E679
:1005C0009DF8000095F800E00028B3F8500000EB1B
:1005D000CE004CF2800703EB400C68D00CF2044CC8
:1005E000BCF80030C3F309038B4234BFC91A0021A1
:1005F0000029A9611FD1687840B93068B0F850105F
:10060000081800EB0E1000F07EF90BE001280BD16A
:100610003068B0F85010081800EB0E1000F20440DB
:100620000022028000F0C7F93046297800F03AFB3A
:10063000002C71D067E03CB1306830F82E1008EA29
:100640000101394320F82E1095F82400012859D1D2
:1006500000F08CF9687808BB00F07EF93F2B028827
:10066000C2F3090202800AD35A0913F01F0F04884B
:1006700008BF521E44EA822444F400440CE023B92B
:10068000028842F4004202800DE05A08DC07048828
:1006900048BF521C44EA8224048004E0012802D1AD
:1006A00000F05AF9038069619BB22A8971E00CF26B
:1006B0000C4CBCF80030C3F3090399422CBFC91A93
:1006C00000210029A96128D1687840B93068B0F8C4
:1006D0005010081800EB0E1000F015F90BE001287F
:1006E0000BD13068B0F85010081800EB0E1000F273
:1006F00004400022028000F05EF93046297800F0C4
:10070000D1FA002C48D13168287831F8202008EA45
:1007100002023A4321F820203EE03CB9306830F82C
:100720002E1008EA0101394320F82E1095F8240014
:10073000012831D100F01AF93468687808BB00F05C
:10074000C0F83F2B1088C0F3090010800AD3580965
:1007500013F01F0F148808BF401E44EA802444F49D
:1007600000440CE023B9108840F4004010800DE0F4
:100770005808DC07148848BF401C44EA80241480D1
:1007800004E0012802D100F09CF8138069619BB25B
:100790006A89306801F009F83168287831F820203A
:1007A00048F6BF731A4082F030024BEA020221F889
:1007B00020203BE5410404D500F0C0F84BF6FF7063
:1007C0007AE0810404D500F0B9F84DF6FF7073E0CB
:1007D000C10417D53168B1F840204FF6FB700240D4
:1007E000A1F840204FF6F7703168B1F84020024080
:1007F000A1F84020304600F082FA00F09FF84EF653
:10080000FF7059E0010545D5002003A9326832F890
:10081000203021F81030401C0828F7D33068B0F899
:10082000402042F00102A0F840204FF6FE703268EE
:10083000B2F840300340A2F840303268B2F84400C9
:100840004305FBD5B2F844404FF6FF300440A2F810
:1008500044400020336831F8102023F82020401C49
:100860000828F7D33068B0F8401041F00801A0F82C
:1008700040104FF2FF7000F061F800F05BF8306854
:10088000B0F8401041F00401A0F84010304600F0EC
:1008900028FA13E0810509D500F050F84FF6FF5013
:1008A00000F048F8304600F006FA07E0C00505D52C
:1008B00000F044F84FF6FF6000F03CF807B0BDE8E8
:1008C000F08FB4F8500002192C7802EB041202F2F7
:1008D0000C4270473268387832F8203008EA030357
:1008E000194322F82010704703F20C431D88C5F30A
:1008F00009057047B2F8500081182A7801EB0211FF
:1009000001F20C41704700F204400288C2F3090270
:100910000280018841F4004101807047B0F8501016
:1009200096F8682101EBC20100EB410101F20C4194
:100930000B8870470240A1F8442070473168B1F835
:10094000442070473068B0F850102A78081800EB3F
:10095000021000F2044070473068B0F850202C7844
:10096000101800EB041000F204407047EA6968694F
:100970009A18EA61C1182A69286A904203D313467B
:10098000C01A2862704710B1034600202862002276
:1009900085F824207047B86150B9306830F82230AB
:1009A00009EA030383F400534BEA030320F82230DF
:1009B0009DF8000070473268687880B9B2F850003E
:1009C00081182A7801EB021101F20C410888C0F36A
:1009D000090008800A8842F400420A807047012812
:1009E00009D1B2F8500081182A7801EB021101F206
:1009F0000C410020088070470121FFF7F0FB2068C0
:100A000000F0C5FE002084F8A80210BD012084F883
:100A1000A8027047044694F8A8020128704710B550
:100A2000FFF7F8FF01D1022010BDFFF7EFFF84F8B8
:100A30002410206800F0A5FEE4E770B5044601F03C
:100A400007052820454360190D0603D528300126E7
:100A5000467003E000F5B4700025457001F0070111
:100A600001700261C370022B04BF0021017194F870
:100A7000A812012901D1022070BD00F014F800F085
:100A800003FA002084F8A80270BD10B5044600F0F7
:100A900094F800F08BF801D1022010BD00F003F8AB
:100AA00000F031FBAEE7012284F8A822014620685D
:100AB000704738B50C4604F0070528214D4341190D
:100AC00001F5B47104F007044A618B610022CA6128
:100AD0004A700C701BE001F00701282251430844C2
:100AE000D0F88401704738B501F007052824654324
:100AF000441928346261A36123620122002301F0BA
:100B0000070184F82420E3616270217021460068A7
:100B100000F07FFB002032BD38B505460C46696801
:100B200004F00700814201D2012032BD28212206B3
:100B300005D54843284400F12801012004E0614321
:100B4000681800F5B4710020487001228A7004F022
:100B500007040C7095F8A802012801D1022032BDCB
:100B600085F8A822286800F0B6FD24B9286805F5A4
:100B70002C7100F013FE002085F8A80232BD10B5DC
:100B8000044601F00F036068984201D2012010BDB5
:100B900000F013F80023837000F008F801D1022060
:100BA00010BDFFF780FF00F0AFFD2BE701F007015C
:100BB000017094F8A8120129704701F0070228205B
:100BC0004243A0180A0603D528300123437070471A
:100BD00000F5B470002242707047F0B4024610680D
:100BE00095681318506803EB5004C0071BD54D449B
:100BF00019E013F8017B05F8017B491EF9D190B18A
:100C000013F8011BC6F38106032E08BF13F8016B0E
:100C100001EB062149422944801C11F8016B05F8BB
:100C2000016B401EF9D1A3420ED013F8016B16F0F0
:100C3000030104BF13F8011BC91C30090F28DCD1C4
:100C400013F8010B0F30D8E7F0BC02F10C0070472D
:100C500000687249884200D0704780B570480268C9
:100C600042F4000202600022006800F400000090DC
:100C700005210098142000F0E5FDBDE80240142095
:100C800000F0FDBD00F52C71D0F8EC0200F03EBE86
:100C90000B4628225343C218D0F8EC02D2F87C212C
:100CA00000F062BE0B4628225343C218D0F8EC0273
:100CB000D26B00F09DBED0F8EC0200F03ABF10B548
:100CC0000446A068022818BF00F0A2FFD4F8EC0286
:100CD000012100F018FFD4F8EC02BDE8104000F04C
:100CE000E7BE10B50446D4F8EC0200F00FFFA0698F
:100CF00020B14C48016841F00601016010BDD0F8F8
:100D0000EC0200F00CBF10B5044647484349C0F858
:100D1000EC42C4F8C00201600822022300214260B4
:100D200083608161C1610162FFF7E0F908B100F001
:100D30006FFFD4F8C00218230022002100F06AFFE0
:100D4000D4F8C00258230022802100F063FFD4F8B9
:100D5000C002C0230022812100F05CFFD4F8C00251
:100D60004FF488730022012100F054FFD4F8C00230
:100D70004FF480730022822100F04CFF002010BD50
:100D800080B5D0F8C002FFF71CFABDE8024051E080
:100D900010B51C461346D0F8C0022246FFF74DFEA0
:100DA000BDE8104046E080B5D0F8C002FFF76DFE08
:100DB000EBE780B5D0F8C002FFF7AEFEE5E780B5FF
:100DC000D0F8C002FFF7DBFEDFE7D0F8C02201F069
:100DD0007F0328204343D018090602D590F82A0043
:100DE000704790F86A01704780B5D0F8C002FFF7ED
:100DF00016FECAE780B5D0F8C002FFF774FEC4E75C
:100E000080B5D0F8C002FFF754FEBEE7D0F8C002AC
:100E1000FFF761BE0548704700000000005C00401D
:100E20001C10024010ED00E0F02600205831002098
:100E3000704770470146002021B1022901D10120ED
:100E400070470220704700000EB419E00021A0F89E
:100E500044104FF43F4200F0A4BCB0F8402044F2EC
:100E6000FF0100F09DBC002070470EB40121A0F8E6
:100E700040100022A0F84020A0F84420A0F8502004
:100E8000002003B0704700002DE9F04F0B460246EA
:100E90001D7832F82560DC7848F68F1100200E406E
:100EA000032C0CD8DFE804F002080C0546F40076A9
:100EB00006E046F4C06603E046F4806600E00120E8
:100EC00048F28004264322F8256048F68F76197888
:100ED0000D4632F8257037403943214322F825105A
:100EE0004BF68F75197B93F8009000294CF2800720
:100EF00048F6BF7E48F2C0087CD1D9884FF6FE7A0A
:100F00000AEA010B59780029B2F850101FD0114499
:100F100001EB091101F58061A1F800B0197832F8F0
:100F200021506D0606D532F821502E4048EA0606BB
:100F300022F821601978DB78012B32F821300EEA93
:100F400003030EBF1C4383F020031C43D7E0891822
:100F500001EB091101F58161A1F800B0B2F8501060
:100F600001EB020C19780CEB011C0CF20C4CBCF8D8
:100F70000010C1F30901ACF8001019693F290BD327
:100F80004FEA511E11F01F0FBCF8001008BFAEF160
:100F9000010E41EA8E2102E021B9BCF8001041F4B3
:100FA000004109E04FEA510EC907BCF8001048BFE4
:100FB0000EF1010E41EA8E21ACF80010197832F8DA
:100FC00021C05FEA4C4C06D532F821C006EA0C0677
:100FD0003E4322F82160197831B911880D4085F41B
:100FE00040552C4314808CE032F821301D4085F4AC
:100FF000005583E0D978022907D132F82910314011
:1010000041F4014141F0800106E032F829A048F6A0
:101010008F6101EA0A01214322F82910B2F85090A9
:101020001978B3F808A0914409EB011101F5806922
:101030004FF6FE7101EA0A01A9F80010B2F850104B
:1010400093F80090114401EB091101F5816C598965
:101050004FF6FE7909EA0101ACF80010597893F8CF
:1010600000C0002932F82C1023D1490405D532F8EC
:101070002C1031400F4322F82C70197832F821706F
:101080007F0606D532F821703E4048EA060622F86F
:101090002160197832F82160354085F440552543A8
:1010A00022F82150197832F821300EEA03031C434C
:1010B00025E0490405D532F82C1031400F4322F8C1
:1010C0002C70197832F821707F0606D532F821701D
:1010D0003E4048EA060622F82160DE781978012EA3
:1010E00032F821600EEA060618BF86F02006264375
:1010F00022F82160197832F821301D402C4322F863
:101100002140BDE8F08F2DE9F041024691F800C082
:1011100048780B7B4BF68F7E4CF2800448F28008B7
:1011200048F6BF7548F2C00648F68F77ABB900287D
:1011300032F82C0008D0400636D532F82C00074093
:101140003E4322F82C602FE0400456D532F82C00A4
:1011500007403C4322F82C404FE0002832F82C0096
:1011600029D1400405D532F82C003840044322F838
:101170002C40087832F820305B0605D532F8203054
:101180003B40334322F82030087832F820301F40AB
:101190003E4322F82060087832F820300EEA03033C
:1011A00048EA030322F82030087832F820100D4076
:1011B00048EA050128E0400405D532F82C00384003
:1011C000204322F82C00087832F820305B0605D541
:1011D00032F820303B401E4322F82060087832F875
:1011E00020301F403C4322F82040087832F820305D
:1011F0001D4048EA050522F82050087832F82010F2
:101200000EEA010148EA010122F820100020BDE8A1
:10121000F0812DE9F0410E4605467278012A48F228
:10122000800848F68F7140F01281B4693269307BD2
:10123000A24238BF144628B9F28800F035FA00F00F
:1012400037FAFBE0F7783078336A022F844640F0B3
:10125000D8809A4280F0C78035F82C00014041F4D4
:10126000014141F0800125F82C101B1B717833627D
:1012700063083278964635F82E707F0604F0010038
:101280004FEA541C57D5C1B900F0F0F901F20C41F6
:1012900000F0E6F908D314F01F0F088808BFACF17E
:1012A000010C40EA8C2001E01CB9088840F40040A1
:1012B00001E000F0CFF908800AE0012908D1B5F873
:1012C0005000401900EB021E0EF20C4EAEF800402A
:1012D000728900F0E9F900F0B7F932BF001B04464B
:1012E000002030627078F0B900F0D5F900F0C4F950
:1012F0000AD3600914F01F0F3A8808BF401E42EA63
:10130000802242F400420CE024B9388840F40040C6
:1013100038800CE06008E2073A8848BF401C42EA87
:1013200080223A8003E0012801D100F0C1F9716107
:10133000A3B232897FE0C1B900F098F901F204410B
:1013400000F08EF908D314F01F0F088808BFACF125
:10135000010C40EA8C2001E01CB9088840F40040F0
:1013600001E000F077F9088009E0012907D1B5F81C
:101370005000401900EB021000F204400480328952
:1013800000F092F900F060F932BF001B0446002023
:1013900030627078F0B900F095F900F06DF90AD379
:1013A000600914F01F0F3A8808BF401E42EA8022ED
:1013B00042F400420CE024B9388840F40040388000
:1013C0000DE06008E2073A8848BF401C42EA8022EC
:1013D0003A8004E0012802D100F074F93C80716188
:1013E000A3B2728927E035F82C1048F68F600140CF
:1013F00048EA010125F82C1000F04DF93B809BB222
:1014000017E01B1B336235F82C104A06B5F8501054
:1014100008D54F1907EB001707F20C47A3B23C8021
:10142000728907E04F1907EB001707F20447A3B2D0
:101430003C8032897169284600F0B7F9317835F877
:10144000212048F6BF70024082F0300223E0307B5A
:10145000002832D1B1693069884232BF091A084682
:101460000021B16100F00EF93F2800F006F919D310
:10147000410910F01F0F388808BF491E40EA81203B
:1014800040F400403880317835F821204BF68F70D9
:10149000024082F4405248EA020025F82100002070
:1014A000BDE8F08108B93888EAE74108C007388804
:1014B00048BF491C40EA8120E4E7F078022869D15E
:1014C00022BBB5F850203078521902EB001202F21C
:1014D00004421388C3F30903138030693F2808D3FB
:1014E000430910F01F0F108808BF5B1E40EA8320DD
:1014F00001E018B9108840F4004006E04308C00736
:10150000108848BF5B1C40EA832010807078E8B9DF
:1015100000F0D8F800F0B1F830693F2808D342094C
:1015200010F01F0F388808BF521E40EA822001E0E9
:1015300018B9388840F4004006E04208C0073888EF
:1015400048BF521C40EA822038800BE0012809D1B4
:10155000B5F8500032694719307807EB001707F2E9
:101560000C473A80F06900288DD0307835F820207B
:1015700044F2400303EA02049C4218BF1A4282D19B
:1015800035F82020114041F4004141F0C00125F818
:10159000201078E7012855D1B1693069884232BFFF
:1015A000091A08460021B161440800F0010143090D
:1015B00022BBB5F850203778521902EB071202F21D
:1015C00004423F281788C7F30907178009D39C46B0
:1015D00010F01F0F178808BFACF1010C47EA8C27E9
:1015E00001E018B9178847F4004706E0A44609B19E
:1015F0000CF1010C178847EA8C2717807278E2B942
:10160000B5F850205719327807EB021707F20C474C
:101610003F2800F032F807D310F01F0F388808BFBA
:101620005B1E40EA83202BE708B9FFF73CBF01B1FE
:10163000641C388840EA842024E7012AA9D100F0FC
:1016400021F81FE701202BE7706932690119306A20
:101650008242704700B15B1C088840EA83207047D3
:101660003F2C0A88C2F309020A807047B5F850106F
:10167000491901EB021170473F2C3A88C2F3090265
:101680003A807047B5F850104F19317807EB0117C1
:1016900007F20C477047B5F850004719307807EB50
:1016A000001707F2044770477169A3B228467CE02F
:1016B000B5F850004719307807EB001707F20447D8
:1016C0003C807047B5F850004719307807EB001799
:1016D00007F20C47704710B50A78497830F8224075
:1016E000002948F2800305D048F6BF710C4084F011
:1016F000100404E04BF68F710C4084F480542343B3
:1017000020F82230002010BD30B50A7B002A36D1E7
:101710004A780C78002A30F8242048F2800348F6F2
:101720008F7516D0520608D530F82420154045F4A0
:10173000004545F0C00520F82450CA78012A1ED083
:101740000A7830F8224048F6BF710C4084F020043B
:1017500012E0520408D530F82420154045F44045E5
:1017600045F0800520F824500A7830F822404BF6E6
:101770008F710C4084F44054234320F82230002021
:1017800030BD11B98021A0F84C1000207047002016
:10179000704700207047B0F8440070470020704741
:1017A0000A40A0F840200020704710B500EB42002E
:1017B0005B1C00F580605B0807E00A784C7842EA21
:1017C0000422891C20F8042B5B1EF6D110BD10B535
:1017D00000EB420000F580605A0806E030F8044B48
:1017E0000C70240A4C70891C521EF7D1DA0744BFD2
:1017F0000088087010BD00004AB1000011F8013BDC
:10180000521E00F8013B1CBF11F8013BF8E770477E
:101810000901020002D41F48815470471E4B02F098
:101820000F021A4402F8041C70471C4B19684FF64B
:10183000FF020002114000F4E06008431849084329
:101840001860704770B5154B1C68C4F3022301245F
:10185000C3F10705052D2EBF0F2504FA05F56D1EF2
:101860001E1D072E34BF0023DB1E2940994004FAB9
:1018700003F3BDE870405B1E1A401143C8E7010046
:1018800007D4012200F01F01064B8A40400943F8AB
:101890002020704700E400E018ED00E00CED00E0CF
:1018A0000000FA0500E100E010B508B9022010BD03
:1018B000D0F8B43213B10024C0F8B44209B1C0F872
:1018C000B012012180F89C120270FFF71CFA002070
:1018D00010BD0246002011B1C2F8B41270470220B8
:1018E000704780B5FFF74CFA002002BD10B5D0F864
:1018F000B42202241AB11268904700B9002420468D
:1019000010BD80B5D0F8B42253681EE110B504466E
:1019100004F52A7000F09EFB0121C4F8941294F89B
:10192000A812B4F8AE02C4F8980211F01F0203D056
:10193000022A0DD006D311E004F52A71204600F0EA
:1019400083F90FE004F52A71204600F0C5FA09E09A
:1019500004F52A71204600F0E2FA03E001F080016C
:1019600000F043F8002010BD10B5044610460A00F0
:101970002DD1D4F89412032920D1D4F86021D4F8C1
:10198000641191420CD2521AC4F860218A4228BFD5
:101990000A46014692B2204600F0B8FB002010BD76
:1019A000D4F8B412086928B100F07EF802D10969B0
:1019B00020468847204600F0B1FBEFE70529EDD12E
:1019C0000020C4F89402002100F00FF8E6E7D4F8F4
:1019D000B422906930B100F067F803D192692046D3
:1019E0009047DBE7022010BD80212046FFF7E1B9D8
:1019F00010B504460800134649D1D4F894020228D1
:101A000036D1226A616A914207D2521A226219467D
:101A100092B2204600F068FB13E0E269B2FBF1F0FD
:101A200001FB1020A0B98A4212D3D4F89802824256
:101A30000ED200220021204600F056FB0020C4F800
:101A400098020023002200212046FFF7D9F915E073
:101A5000D4F8B412C86828B100F026F802D1C968D9
:101A600020468847FFF7C0FF204600F05EFB05E0F8
:101A7000042818BF002801D1FFF7B6FF94F8A00290
:101A8000012804BF002184F8A012002010BDD4F862
:101A9000B422506930B100F007F803D152692046F2
:101AA0009047F2E7022010BD94F89C02032870478B
:101AB00010B50446402300220021FFF769F90122F6
:101AC0004020C4F85821C4F864014023002280213A
:101AD0002046FFF75DF901204021A061616284F892
:101AE0009C020021D4F8B802C4F894126160C4F8D2
:101AF000A41230B1D4F8B42261685368C9B2204648
:101B00009847002010BD01740020704790F89C1287
:101B100080F89D12042280F89C220020704790F8E3
:101B20009C12042904BF90F89D1280F89C1200209A
:101B3000704780B590F89C12032904D1D0F8B412F4
:101B4000C96901B18847002002BD9847002002BD45
:101B500080B500F0F1FA00F01FFB00F00FF800F084
:101B600025FB00F045FB00F094FB00F059FB00F072
:101B700067FC00F03BFD00F07DFCFEE718B593B07C
:101B8000282109A800F052FD1421684600F04EFDFE
:101B900005A8002100220023002480E81E00012166
:101BA00009910B924FF480310A9111910123022285
:101BB0004FF4E0110D931092129109A800F03AFD34
:101BC00008B100F025F8022101910F204FF4806147
:101BD00000900391029404940221684600F0B4FE40
:101BE00008B172B6FEE710210591089405A800F02F
:101BF00091FF08B172B6FEE714B010BD006803494A
:101C0000884208BF00F0FABF70470000002C014076
:101C100072B6FEE730B528240D0605D501F00701A0
:101C200061430844283003E06143084400F5B47080
:101C30001AB900210173C38004E0038101211B0C48
:101C400001734381002030BDF8B50E46054630785B
:101C500010F0600009D0202818BF402848D1D5F8DE
:101C6000B422936828469847BBE0717809293FD889
:101C7000DFE811F00B01230194001C01940099008E
:101C80000A009400F500B9000022ADF80020708829
:101C9000010A012900F07B8002296AD003292ED095
:101CA000062923D0072904BF287C002820D1D5F895
:101CB000B4120A6B6846904707214170BDF80010C6
:101CC00081B1F188002910D0BDF80010F28891424E
:101CD00088BF1146ADF800100146BDF80020284627
:101CE00000F0FAF9F0880028BED1ABE0287C00288B
:101CF00054D1D5F8B4124A6B68469047DEE7C0B2BB
:101D000005284BD8DFE800F02D251D150C03D5F86C
:101D1000B0028269002A41D0287C69469047CDE70D
:101D2000D5F8B0024269002A38D0287C694690472D
:101D3000C4E7D5F8B002026982B3287C69469047AF
:101D4000BCE7D5F8B002C26842B3287C6946904728
:101D5000B4E7D5F8B002826802B3287C69469047A0
:101D6000ACE7D5F8B0024268C2B1287C694690471A
:101D7000A4E7287CD5F8B4120028684604D1896A03
:101D800088470222427099E7C96A8847F9E7D5F87F
:101D9000B022287C1368694698478FE73146284669
:101DA00000F06CF91DE0B088002804BFF08800281E
:101DB000F4D17488802CF1D295F89C02032804F0A9
:101DC0007F04EBD085F89E4221462846FFF70CF8A9
:101DD000284600F0A3F9002C0CBF0120022085F852
:101DE0009C020020F2BD3B4F708838703C78214641
:101DF0000229D3DA95F89C02022819D0032825D1AC
:101E00003CB9022085F89C0269602846FFF779FDFD
:101E100018E069688C4215D0C9B22846FFF771FDF9
:101E20006C6021462846FFF761FD02280AD1B5E71C
:101E300044B1032085F89C026C602846FFF756FDEC
:101E40000228ABD0284600F069F9CAE73146284697
:101E500000F014F939782846FFF753FDC1E7F08800
:101E600001289BD195F89C02401E012807D9801EAD
:101E700094D10122291D284600F02EF9B1E7002057
:101E8000A860012205F10801F5E795F89C02401EC3
:101E9000022883D8F288022AEAD1D5F8A4020121C7
:101EA00000B10321E96005F10C01E4E77088012825
:101EB00097D10121C5F8A412C4E795F89C02401EF1
:101EC0000228E6D87288012A8BD10020C5F8A40226
:101ED000B8E70000ED22002038B50D46044628780A
:101EE00010F060001CBF2028402813D194F89C02F9
:101EF000401E02280ED82A79022A0BDA00F0A5F833
:101F00000146E888002808BF002906D1204600F0D5
:101F100005F902E0204600F0B1F8002032BD70B5AE
:101F20000A780446087912F0600306D0202B18BF07
:101F3000402B69D100F089F869E002F06002202AA4
:101F400006D1D4F8B42293682046BDE87040184703
:101F50004A78002A32D0012A12D0032A54D194F8A8
:101F60009C32022B13D0032B4ED14A8812BB00287F
:101F700018BF80281ED0C988E1B900F062F819E0C6
:101F800094F89C22022A02D0032A0AD03CE00028BE
:101F900018BF802838D000F054F8802100F052F8A3
:101FA00035E04A889ABB10F07F0103D001462046F5
:101FB000FEF705FF204600F0B1F828E0142300F0FA
:101FC0007F0294F89C625A43A518022E00F080020A
:101FD00002D0032E11D017E0002818BF802813D19B
:101FE000002A14BF05F1140105F5AA71002008604C
:101FF0000222204600F070F809E000F00F0673435B
:10200000234432B19A698AB9204600F037F800209B
:1020100070BDD3F85821002AF6D005F5AA7500281E
:102020001CBF0146802903D1002006E01435F6E7E5
:102030002046FEF7CAFE00B1012028600222294690
:10204000D7E701462046FEF7B4BED4F8B422936821
:10205000204618470A7802704B7843708A78CB780C
:1020600002EB032242804B790A7902EB0322828041
:102070008A79C97902EB0122C280704710B5044603
:102080008021FEF796FE2046BDE810400021FEF7B5
:1020900090BE00280B4600D1704770B50146002461
:1020A00000E0641C11F8015B002DFAD12406E40D58
:1020B000A41C14801178197003225A70022207E0C0
:1020C00010F8011BD4B2521C1955D6B2521C9D55A2
:1020D00001780029F4D170BD80B513460222C0F802
:1020E0009422C361036201E080B513460A460021D1
:1020F000FEF780FE002002BD80B513460322C0F823
:102100009422C0F85C31C0F8603101E080B513461C
:102110000A460021FEF774FE002002BD80B50421AE
:10212000C0F8941200230022E1E780B50521C0F831
:10213000941200230022ECE780B50748016841F0C3
:10214000100101600320FFF770FB0F2000F05EFD1F
:1021500000F098FD002002BD00200240124901203D
:1021600081F820040A22642081F81B24A1F81C04B1
:102170004FF4806200204A828882887501224FF4E1
:10218000FA70A1F817004A744FF400700022401E44
:10219000A1F81920FBD17047034991F820040028C9
:1021A00008BFFFF7DBBF7047CC1E00200F4881B08F
:1021B000016841F020010160026802F020020092F3
:1021C0000099026842F004020260036803F004030D
:1021D00000930099026842F008020260006800F073
:1021E00008000090009801B0704700BF181002402E
:1021F00080B50A48016841F00101016000220068D1
:1022000000F001000090052100980D20FFF71AFB57
:10221000BDE802400D20FFF732BB00BF14100240A2
:1022200018B58DB000F088F800F081F800F07AF869
:102230007B4C7C482060002140F27710E0606160B8
:102240008020A061A1602161204600F041FD08B11D
:10225000FFF7DEFC00F075F808B1FFF7D9FC204667
:1022600000F06DFD08B1FFF7D3FC00F071F808B184
:10227000FFF7CEFC002102910391049106910C22FC
:1022800002A9204600F041FE08B1FFF7C1FC0EB0E4
:1022900010BD18B58DB000F04FF800F048F800F010
:1022A00041F8614C6148206000214FF4B470E06057
:1022B0006160A1602161A161204600F009FD08B1C3
:1022C000FFF7A6FC00F03DF808B1FFF7A1FC20469F
:1022D00000F05FFD08B1FFF79BFC00F039F808B192
:1022E000FFF796FC602102914FF480720392002167
:1022F00004910022069202A9204600F02FFE08B1A8
:10230000FFF786FC4FF440700390042202A9204698
:1023100000F024FE08B1FFF77BFC204600F05FF8D8
:102320000EB010BD1C22002102A800F0E9BF082257
:102330000021684600F0E4BF1022002109A800F047
:10234000DFBF4FF48050099009A9204600F06BBE12
:102350000021009101912046694600F0DBBF38B5AD
:102360000446304A20683249904228D1D1F8EC0F17
:10237000304D40F00200C1F8EC0F2022D1F8EC0FF4
:1023800000F0020000900098296000201021696090
:10239000A8608021E9604FF480704FF4806169612A
:1023A00028614FF44051AA61E961284600F0E8FF36
:1023B00008B1FFF72DFC25636C62256231BD1B4A15
:1023C00090420BD1D1F8EC0F40F00400C1F8EC0FB3
:1023D000D1F8EC0F00F004000090009831BD18B562
:1023E00085B004461022002101A800F089FF216871
:1023F0000E48814212D11048016841F00801016085
:10240000C021006800F008000090022200980B48EC
:1024100001910292049201A901F09CF806B010BD4E
:10242000EC34002000040040343500200008004057
:10243000300002407C35002018100240000C0140A2
:10244000EFF30580002804BFEFF31080002807D1C8
:10245000DFF85C110868022803D1EFF3118000B1A6
:1024600082E0086810B901220A6070474FF0FF301F
:102470007047000080B500F09EF804BFEFF31080B5
:10248000002807D1DFF828110868022803D1EFF3EC
:10249000118000B109E00868012805D102220A6014
:1024A00001F05CFA002002BD02E06FF0050002BD01
:1024B0004FF0FF3002BDF0B585B000230493EFF379
:1024C0000583002B04BFEFF31083002B49D1DFF805
:1024D000E0301C68022C03D1EFF31183002B40D1B4
:1024E00003003ED00023802518268DF80C3003AC65
:1024F0005AB3136803B11C4693691BB11E0004D084
:10250000392E02D21379DF0701D500202AE0536962
:1025100003B19D08D2F80CC0976887B1BCF15C0F7D
:102520001FD31269002A18BF002B1AD001920B4644
:10253000029700962A46214601F0E6F810E0BCF129
:10254000000F04BF1269002A0BD104AB019300965F
:102550000B46AAB2214601F005F9012801D000205E
:102560000490049805B0F0BD6FF00500704710B5F9
:1025700000F015F804BFEFF31081002905D100F039
:1025800012F805D1EFF3118111B16FF0050403E0EA
:10259000002408B101F0B9F9204610BD0025EFF381
:1025A00005810029704702490A68022A7047000025
:1025B000083600200446EFF3058000287047094BD9
:1025C000036003F15C000860802111607047064BD6
:1025D000036003F15C0008604FF480711160704784
:1025E00000000000A42C0020701A002038B5084D0F
:1025F0000FF229002A460021064CFFF75CFF2060FD
:1026000005F1240200210448FFF755FF606031BD49
:1026100070510008003600202551000880B501F0F7
:102620006FFC0120FFF7A3FFFBE70000002201F091
:1026300095BC00002DE9F843040016D02078DFF89F
:102640009464C10713D5706800F00C00042807D00B
:10265000706800F00C00082840D17068C1033DD5B7
:102660003068810303D56068002800F06481207819
:10267000DFF87074810719D5706810F00C0F07D05F
:10268000706800F00C00082860D17068C1035DD448
:102690003068810703D52069012840F04C813168FA
:1026A000606921F0F80141EAC001316021780A0730
:1026B00040F18080A069002800F0A7800121C7F8C0
:1026C000801401F065FC0546706A810763D401F04F
:1026D0005FFC401B0228F7D903202FE16068B0F5AA
:1026E000803F04D1306840F48030306014E008B995
:1026F00030680AE0B0F5A02F306806D140F48020A1
:102700003060316841F4803105E020F48030306081
:10271000316821F480213160606858B101F038FCE3
:10272000054630688103A2D401F032FC401B6528C5
:10273000F7D3D1E701F02CFC05463068810396D52C
:1027400001F026FC401B6528F7D3C5E72069A8B136
:102750000121396001F01CFC05463068810705D471
:1027600001F016FC401B0228F7D9B5E73068616913
:1027700020F0F80040EAC100306097E7386001F0CF
:1027800007FC05463168880790D501F001FC401B25
:102790000228F7D9A0E7DFF840030168C9084FF421
:1027A0007A72B1FBF2F2009200BF0098411E00283D
:1027B0000091F9D1207841076FD5F0690025C1005B
:1027C00009D4F06940F08050F0610125F06900F013
:1027D000805000900098DFF81083D8F80000C10501
:1027E00021D4D8F8000040F48070C8F8000001F04F
:1027F000CFFB8146D8F80000C10514D401F0C8FB16
:10280000A0EB09006528F5D366E7C7F8800401F05E
:10281000BFFB0546706A8107CCD501F0B9FB401BB0
:102820000228F7D958E7E068012808D008B9306ACB
:1028300009E00528306A06D140F004003062306AB1
:1028400040F0010005E0400840003062306A20F0AE
:102850000400306241F28938E06860B101F098FB11
:102860008146306A810713D401F092FBA0EB090086
:102870004045F6D330E701F08BFB8146306A810793
:1028800006D501F085FBA0EB09004045F6D323E710
:102890001DB1F06920F08050F061E06900284CD053
:1028A000716801F00C01082938D002282AD100F003
:1028B00047F805463068810105D501F069FB401BEA
:1028C0000228F7D908E7206AB0F5803F05D1716882
:1028D000A06821F40031014371607268206A616A66
:1028E00022F4741202430A437260012000F029F8B6
:1028F00004463068810120D401F04AFB001B022805
:10290000F7D9E9E600F01CF804463068810114D5D7
:1029100001F03EFB001B0228F7D9DDE601280AD0B2
:102920007068226A00F48031914202BF00F4701096
:10293000616A884201D0012000E00020BDE8F283F6
:102940000020386601F024BB2DE9F04104008846E0
:102950004ED0664E00F077F802D200F06FF847D103
:1029600020685C4D810712D5400703D5696841F4A2
:10297000E06169602078010703D5686840F4605021
:1029800068606968A06821F0F001014369602178FE
:10299000C80725D56068012802D129688A0303E0A9
:1029A0000228296802D18A0102D421E08A071FD5B2
:1029B0006968890840EA8100686001F0E9FA074621
:1029C0006868616800F00C00B0EB810F08D001F07E
:1029D000DFFAC01B41F289318842F1D303202BE09A
:1029E000306800F00700804504D200F027F801D0DD
:1029F000012021E02078410705D56A68E06822F4CB
:102A0000E06202436A602178080706D56968206998
:102A100021F4605141EAC001696000F019F86A6868
:102A200033492D4BC2F30312895CC84018602C480F
:102A3000006800F0EBF80020BDE8F0813168C908BB
:102A400048EAC1013160306800F007004045704736
:102A5000284922480A6802F00C03082B00D070476E
:102A600010B500BF26A4C2F38343D203E35C08D5AC
:102A70000968584326A3C1F340415A5CB0FBF2F009
:102A800010BD18461C49484310BD1348194A006838
:102A900013681A49C3F3C222895CC840704710B555
:102AA0000F220260134A136803F0030343601468A3
:102AB00004F0F0048460136803F4E063C3601468F6
:102AC000E40804F4E0640461D2F8FC0F00F00700AD
:102AD000086010BD001002401800002000127A00AB
:102AE000140000200000424200700040002002401C
:102AF000CC5200080410024000093D0004530008B5
:102B000002030405060708090A0B0C0D0E0F10102E
:102B1000010200002DE9FC410646354D3078C10721
:102B200050D5A8690024C10009D4A86940F080509C
:102B3000A8610124A86900F08050009000982D4FF2
:102B40003868C10511D4386840F48070386001F0ED
:102B50001FFA80463868C10507D401F019FAA0EBC6
:102B600008006528F6D303203FE0E86910F44070C0
:102B70001EBF716801F44071884218D01E49E8698F
:102B800001220A60002320F440700B60E861C00756
:102B90000DD501F0FDF90746E869810707D401F07A
:102BA000F7F9C01B41F289318842F5D3DBE7EA69C6
:102BB000706822F440720243EA611CB1A86920F0F7
:102BC0008050A8613078810705D52A68B06822F462
:102BD000404202432A603178C80605D52968F0686A
:102BE00021F48001014329600020BDE8F681000046
:102BF00004100240007000404004424202494A680A
:102C0000087882184A6070470C00002018B5014609
:102C100087B000221920FEF715FE1920FEF72FFEBF
:102C20001448154C016841F40061016001A9006875
:102C300000F400600090009802A8FFF730FFFFF753
:102C400024FF0E490E4B2160B0FBF3F0401E40F212
:102C5000E73260600021E2602161A160204600F05F
:102C600037F818B9204600F040F800E0012008B01D
:102C700010BD000018100240A4340020002C0140B8
:102C800040420F0080B51048016841F00101016029
:102C9000026802F0010200920099426842F08052FC
:102CA00042600022406800F0805000900F210098A0
:102CB0006FF00100FEF7C6FD0448016821F0E061F5
:102CC00041F00071016001BD181002400400014094
:102CD00010B5040001D1012010BD94F83D0018B9D1
:102CE00000F06AF8FFF73BFB35E090F83D10012952
:102CF00001D001207047022180F83D100168CA68A8
:102D000042F00102CA600168DFF8A020914218BFBA
:102D1000B1F1804F07D0DFF8982091421CBFDFF857
:102D20009430994205D1896801F00701062904D041
:102D300001680A6842F001020A600020704710B57D
:102D4000040001D1012010BD94F83D0018B900F035
:102D500033F801F023F9022084F83D00211D20689A
:102D600000F0C8F9012084F8460084F83E0084F899
:102D70003F0084F8400084F8410084F8420084F861
:102D8000430084F8440084F8450084F83D000020A6
:102D900010BD10B5040001D1012010BD94F83D0014
:102DA00018B900F009F801F0FAF8D4E7002C014056
:102DB0000004004000080040002184F83C10204638
:102DC000704710B50446206801698A0715D5C168A7
:102DD0008A0712D56FF00201016101222277806912
:102DE00010F0030F204602D001F0DAF803E001F002
:102DF000D8F800F087F800202077206801694A079A
:102E000015D5C1684A0712D56FF00401016102228D
:102E10002277806910F4407F204602D001F0C0F88C
:102E200003E001F0BEF800F06DF800202077206884
:102E300001690A0715D5C1680A0712D56FF00801A4
:102E4000016104222277C06910F0030F204602D0EE
:102E500001F0A6F803E001F0A4F800F053F8002018
:102E6000207720680169CA0615D5C168CA0612D53F
:102E70006FF01001016108222277C06910F4407FD1
:102E8000204602D001F08CF803E001F08AF800F04F
:102E900039F80020207720680169CA0708D5C16881
:102EA000CA0705D56FF0010101612046FEF7A6FEB5
:102EB000206801690A0608D5C1680A0605D56FF0C1
:102EC00080010161204601F06DF8206801694A0621
:102ED00008D5C1684A0605D56FF04001016120465A
:102EE00001F061F8206801698A060AD5C1688A067E
:102EF00007D56FF0200101612046BDE8104001F0C8
:102F000053B810BD204601F050B838B500F0E4F8D1
:102F100001D1022032BD00F082F832B1042A08D07B
:102F2000082A0AD00C2A0CD00FE0206800F011F912
:102F30000CE0206800F032F908E0206800F057F952
:102F400004E0206800F07BF900E0012500F001F8C2
:102F500032BD002084F83C002846704770B500F070
:102F600057F801D1022070BD00F059F832B1042A9F
:102F700015D0082A25D00C2A34D045E0206800F06E
:102F8000E8F82168886940F008008861886920F0C5
:102F9000040088618A69306902438A6135E02068EB
:102FA00000F0FCF82068816941F400618161816969
:102FB00021F4806181618169326941EA0221816184
:102FC00023E0206800F013F92168C86940F0080088
:102FD000C861C86920F00400C861CA693069024349
:102FE000CA6112E0206800F02AF92068C16941F442
:102FF0000061C161C16921F48061C161C169326947
:1030000041EA0221C16100E00125FFF7A2FF70BD86
:103010000446002594F83C0001280E467047012024
:1030200084F83C00704738B500F056F801D1022012
:1030300032BDFFF7F4FF022284F83D20DFF84002A2
:1030400022689368034093600868020018BF102844
:1030500030D0202818BF30282CD0402826D0502827
:1030600019D060281BD0702806D0B0F5805F27D01B
:10307000B0F5005F07D022E000F029F820688168F1
:1030800041F0770105E000F022F82068816841F402
:103090008041816014E000F016F850210BE0CA680E
:1030A0004968206800F005F9602104E000F00BF8A1
:1030B000402100E00146206800F00DF900E0012504
:1030C00000F010F832BDCA6849682068E2E0CB68B9
:1030D0004A688968206806E10446002594F83C00A7
:1030E00001287047012084F83D00002184F83C103D
:1030F0002846704770B5634E0368634C634DB04219
:1031000018BFB0F1804F03D0A84218BFA04209D128
:103110004A6823F070031343B0421CBFB0F1804FE4
:10312000A84201D0A04203D1CA6823F440731343DC
:103130004A6923F0800313430360B0428B68C36283
:103140000A68826202D10969514A11600123436110
:1031500070BD70B5066A026A52085200026226F01B
:103160000206446885690B688A6825F073051D436B
:103170001643444B98420BD1CA684B6926F00806A7
:1031800024F4407416438A691C4326F00406144351
:103190004460856149684163066270BD70B5056A27
:1031A000026A384E22F01002026225F020054368C0
:1031B00084690A6824F4E64444EA02248A68B04236
:1031C00045EA02150DD1CA684E6925F0800545EA29
:1031D00002158A6923F44063164325F0400543EA4B
:1031E00086034360846149688163056270BD70B580
:1031F000056A026A22F48072026225F4007543684F
:10320000C4690A688E6824F0730414431D4A90420E
:1032100045EA06250DD1CA684E6925F4006545EAE0
:1032200002258A6923F44053164325F4806543EA56
:1032300006134360C4614968C163056270BD70B51F
:10324000046A026A0F4E22F48052026224F400548F
:103250004268C3690D6823F4E64343EA05238D6899
:10326000B04244EA053404D14D6922F4804242EA76
:1032700085124260C36149680164046270BD000048
:103280008800FFFF002C01400008004000040040BF
:10329000302C014010B5036A046A640864000462BB
:1032A00023F00A03846924F0F00444EA02148461E0
:1032B00023E010B5036A046A24F01004046223F0CA
:1032C000A003846924F4704444EA0234846143EA2C
:1032D0000113036210BD826822F07002114341F0B5
:1032E00007018160704710B5846824F47F4421434E
:1032F000114341EA0321816010BD1943016210BDF1
:1033000010B5044610460A460146204600F04EFE1F
:10331000204610BD30B590F83C20012A01D1022092
:1033200030BD012280F83C20022380F83D30046843
:103330006568A3680A6825F0700515436560026832
:103340000C4CA24218BFB2F1804F05D00A4CA242E9
:103350001CBF0A4DAA4204D1496823F080030B43E5
:103360009360012280F83D20002180F83C1000206D
:1033700030BD0000002C0140000400400008004067
:1033800010B508B9012010BD0268DFF8A4118A1831
:103390001423B2FBF3F39B00DFF898110364C163BD
:1033A000022280F8212001680B6841688268046865
:1033B0006FF30D130B43C168134302690B4341695B
:1033C000134382690B43C16913430B4323600022FB
:1033D0008263012180F8211080F82020002010BD98
:1033E0002DE9F047C16B594AD1F800E0D0F800C090
:1033F0005749DCF80050066C534B524CDFF84081C3
:10340000DFF83891DFF830A10427B7401EEA070F34
:1034100030D06F072ED5DCF80050AD0605D4DCF8AF
:10342000005025F00405CCF800500568554508BF4C
:10343000042218D04D4508BF402214D0454508BF8E
:103440004FF480620FD0A54208BF4FF480420AD0EB
:103450009D4208BF4FF4802205D095420CBF4FF427
:1034600080024FF080620A60C16A00295CD0BDE82A
:10347000F04708470227B7401EEA070F35D0AF07CD
:1034800033D5DCF80050AD0608D4DCF8005025F048
:103490000A05CCF80050012580F8215005685545F3
:1034A00008BF022218D04D4508BF202214D0454540
:1034B00008BF4FF400720FD0A54208BF4FF400526E
:1034C0000AD09D4208BF4FF4003205D095420CBF90
:1034D0004FF400124FF000720A60002180F82010B3
:1034E000816A09B3BDE8F0470847082101FA06F6EA
:1034F0001EEA060F18D0290716D5DCF8002022F0A6
:103500000E02CCF800200123016CC26B8B4053608B
:103510000121816380F82110002180F82010016BC7
:1035200011B1BDE8F0470847BDE8F0870000000092
:10353000F8FFFDBF00000240080002401C000240EE
:103540003000024044000240580002406C0002403B
:10355000040002402DE9F8474FF0000E00245D4AB8
:103560005D4BDFF878814FF00F0982460CE0176859
:103570003840106006E055604D68ED03F7D51068DF
:10358000074317600EF1010E0F6837FA0EF000F0D6
:103590009F80012000FA0EF63740B742F2D148680A
:1035A00038B301281AD002281DD003282ED01128A4
:1035B00016D012281AD04A4DA8421CBF494DA84225
:1035C00017D0494DA8421CBF484DA84211D0484DC4
:1035D000A8421CBF474DA8420BD018E0CC6816E0AB
:1035E000CC68241D13E0CC68083410E0CC680C349F
:1035F0000DE0886808B9042409E0012819BF0824EF
:10360000CAF814600824CAF8106000E00024B7F576
:10361000807F03D250464FEA8E0C05E0AEF10805DC
:103620000AF104004FEA850C056809FA0CF6B54367
:1036300004FA0CF6354305604868C000A2D5D8F8F6
:10364000000040F00100C8F80000D8F8005005F074
:10365000010500954FEA8E0500984FEA9E0053F849
:10366000206005F00C0C09FA0CF526EA0505224E3F
:10367000B24508BF00260ED0204EB24508BF012635
:1036800009D01F4EB24508BF022604D01D4EB245D8
:103690000CBF0326042606FA0CF6354343F82050E7
:1036A000F8434D68ED0295684CBF3D430540956079
:1036B0004D68AD02D5684CBF3D430540D5604D68AF
:1036C0005668AD034CBF47EA060500EA060552E717
:1036D000BDE8F187000401400800014018100240D5
:1036E0000000111000001210000021100000221034
:1036F000000031100000321000080140000C0140B1
:103700000010014000140140F0B585B050260B9D1B
:1037100025B986F3118800F0A2FBFEE70C9C24B9C2
:1037200086F3118800F09BFBFEE75C270097009F63
:103730005C2F04D086F3118800F091FBFEE725632F
:103740000026022584F8595004AF0A9D039602947E
:103750000197009500F034F8204600F072F80498C4
:1037600005B0F0BD2DE9F8430646174684B08846FB
:103770009946B80000F024FC05001CD05C2000F045
:103780001FFC040014D00020256384F85900039026
:1037900002940D980C99019000914B463A4641468F
:1037A000304600F00DF8204600F04BF8012004E010
:1037B000284600F091FC4FF0FF3005B0BDE8F083E3
:1037C0002DE9F8430A9D81460C461746286B98461A
:1037D000A522B90000F0BEFB296B01EB8702171F81
:1037E000FF08FF000021625C6B1883F83420605CE6
:1037F00010B1491C1029F6D3089E002085F843001B
:10380000372E099C88BF3726EE62EE642865C6F124
:103810003806281D00F0C1FC05F1180000F0BDFCC1
:103820002D61AE616D620020686585F858004246E2
:103830004946384600F0EEFC286004B12560BDE83A
:10384000F183F8B500F07BF8DFF8A455D5F8AC04A7
:10385000401CC5F8AC041426D5F8880460BBC5F834
:103860008844D5F8AC0401282ED1002705F12800A2
:1038700006FB07F1084400F083FC7F1C382FF5D3CA
:1038800005F2D44000F07CFC05F59D6000F078FC6A
:10389000284600F075FC05F1140000F071FC05F5F8
:1038A000936000F06DFC05F2D440C5F88C0405F57A
:1038B0009D61C5F8901407E0D5F8B80420B900F070
:1038C00047F828BFC5F88844D5F8C804E26A401C08
:1038D0006064D5F8B414914238BFC5F8B424C5F873
:1038E000C804564305F12800211D304400F058FC5F
:1038F00000F00CFDD5F8B80430B100F0D2F903D2D5
:1039000000F0B6FA00F0ABFAF1BD80B590B1DFF887
:10391000E024D2F8D01411B100F09EFAFEE7D2F8FC
:10392000D014491CC2F8D014002100F0AFFA00F006
:1039300057F818B900F006F800F091FA01BD0446F6
:1039400000F0CBBCDFF834154FF0805008607047B2
:10395000E06AD5F88814CA6A9042704780B586B08C
:1039600000210591049103AA04A905A8FEF727FEEA
:103970000598049902900022009201910023039A75
:103980000FF274510FF2B130FFF7BEFEB0B100F08C
:1039900005FD5021012813D181F3118800F05FFA51
:1039A000DFF850054FF0FF31C0F8CC140122C0F809
:1039B000B8240021C0F8B01400F04AFC07B000BDE4
:1039C00010F1010FFAD181F3118800F048FAFEE7F7
:1039D000DFF82005D0F8D014491CC0F8D014704787
:1039E00070B5DFF80C64D6F8D0040024002520B9A7
:1039F00000F04DF800F033FAFEE700F06EFCD6F868
:103A0000D004401EC6F8D004D6F8D00400283CD11B
:103A1000D6F8AC04D8B938E0F068C46800F03BF8D8
:103A200000F0E8F9E06AD6F8B414814238BFC6F86D
:103A3000B40414225043304400F02FF9E06AD6F861
:103A40008814CA6A904224BF0121C6F8C0143068A5
:103A50000028E1D10CB100F0ACF9D6F8BC444CB16F
:103A600000F022F810B10120C6F8C004641EF7D19E
:103A7000C6F8BC54D6F8C00438B1DFF800144FF0D3
:103A800080500125086000F0EAF900F0EDB95021FE
:103A900081F31188704704F1180000F0A7BBDFF82C
:103AA0005404D0F8B00470472DE9F041DFF84083AA
:103AB000D8F8D004002600285FD1D8F8B044641CA0
:103AC000C8F8B04417D1D8F88C04006820B1FFF7CB
:103AD000DEFF00F0C4F9FEE7D8F88C04D8F89014A3
:103AE000C8F88C14C8F89004D8F8C404401CC8F86E
:103AF000C40400F05EF9D8F8CC04142784422ED315
:103B000024E0D8F88C14C868C5686868844231D34A
:103B1000281D00F06BFBA86A18B105F1180000F031
:103B200065FBE86AD8F8B414814238BFC8F8B40419
:103B300008F128027843291D104400F031FBE86A9F
:103B4000D8F88814CA6A904228BF0126D8F88C0495
:103B500000680028D5D14FF0FF31C8F8CC1408F127
:103B60002801D8F88804C06A4743CA59022A09D3F1
:103B7000012607E0C8F8CC04F1E7D8F8BC04401CE3
:103B8000C8F8BC04D8F8C00400B101263046BDE82E
:103B9000F08110B5DFF85C23D2F8D00418B1012110
:103BA000C2F8C01410BDC2F8C004D2F8B41400E0CA
:103BB000491E14234B431344986A20B90029F7D1B6
:103BC00000F04AF9FEE7D86A4068D86203F1300491
:103BD000A04204BF4068D862D86AC368C2F888347B
:103BE000C2F8B41410BD10B50C4610B900F034F989
:103BF000FEE700F01DF800F0E0FA2046BDE81040B6
:103C0000FFE7012100F042B938B50D46144610B95E
:103C100000F022F9FEE700F00BF800F0C1FA0CB159
:103C20004FF0FF3521462846BDE8344000F02EB95C
:103C3000DFF8C022D2F8883403F11801704738B594
:103C4000C068C46814B900F007F9FEE7FFF723FF66
:103C5000DFF8A052D5F8D00448B900F0CBF800F056
:103C600014F838BFC5F8B42400F00AF902E004F1F2
:103C70001801284600F094FA00F013F803D201204E
:103C8000C5F8C00432BD002032BDE26AD5F8B404E4
:103C90009042704714204243A818211D283000F09C
:103CA0007FBAD5F88804C16AE06A81427047DFF8BC
:103CB0004412D1F8C4240260D1F8B01441607047B6
:103CC000F8B504460D46502014B900F0C6F8FEE7DA
:103CD00015B900F0C2F8FEE700F0FFFADFF81402B1
:103CE000D0F8B01462682E688B1A16F1010F0DD04F
:103CF000D0F8C474D4F800C0674501D0914209D20D
:103D0000B34205D2F31A2B6000F009F8002402E058
:103D100000202860012400F0F9FA2046F2BDD0F816
:103D2000C4142160D0F8B00460607047DFF8C4119B
:103D30000120C1F8C004704738B52D4C15E000F0E3
:103D4000CCFA206AC568281D00F050FAD4F8AC04FB
:103D5000401EC4F8AC04D4F89404401EC4F8940483
:103D600000F0D4FA284600F00FF8D4F894040028A4
:103D7000E5D1A06A0228F8D3DFF800014FF08051A6
:103D8000016000F06CF8F0E710B5044694F85900B3
:103D900040B9206B00F0A0F92046BDE8104000F0CB
:103DA0009BB910BD0128F7D00228FAD000F054F8D2
:103DB000FEE70F49D1F88C04006810B94FF0FF32CC
:103DC00004E0D1F88C04C268D0684268C1F8CC2401
:103DD0007047DFF82011D1F8B80408B90120704706
:103DE000D1F8D00408B902207047002070470000C5
:103DF00074150020201D00F0F9B938B504460021E3
:103E000044B3DFF8F050D5F888045022844204D03F
:103E100082F3118800F023F8FEE7206D20B982F3C9
:103E2000118800F01CF8FEE7E26AE36C401E9A423B
:103E300020650FD070B9FFF7DDFFE06CE062C0F1E4
:103E40003800A061FFF721FF38BFC5F8B424FFF7A1
:103E500021FF0121084632BD502080F31188BFF3B5
:103E60004F8FBFF36F8F704700F050FA284670BD38
:103E7000024A4FF0805111607047000004ED00E0ED
:103E800014204243A818211D28307047F8B5194D59
:103E9000D5F8B0740C46D5F888140646081D00F015
:103EA000A5F916F1010F09D144B1D5F88804011D17
:103EB00005F59360BDE8F44000F072B9D5F88804C8
:103EC000F6194660BE42D5F8880406D2011DD5F821
:103ED0009004BDE8F44000F070B9011DD5F88C04E1
:103EE00000F06BF9D5F8CC04864238BFC5F8CC6435
:103EF000F1BD00007415002049444C45000000004D
:103F000010B5104C104900222046FDF7CDFC08B139
:103F1000FDF77EFE0D492046FDF7DBFC08B1FDF7FD
:103F200077FE0B49204600F0F5FC08B1FDF770FE66
:103F30002046FDF7D6FC18B1BDE81040FDF768BE7D
:103F400010BD00BFE02900203C0100202800002017
:103F50002C01002062F30F2262F31F4200B500BF64
:103F6000130096469446103928BFA0E80C50FAD8A2
:103F70005FEA417C28BF0CC048BF40F8042BC9074A
:103F800028BF20F8022B48BF00F8012B00BD00001D
:103F900001484068704700BF0C0000207047704720
:103FA0007047704770477047704770474018491C0A
:103FB0001CBFB1F1010100F8012DF9D170470000DB
:103FC0002DE9F8430446FFF703FD6C4FB8684FF046
:103FD0000009002508BB07F1180307F1180113F0C9
:103FE000070F4FF440600A4605D0CA1DD208D20020
:103FF000C2F54060081880180838C008C0003A6050
:104000007D60B86045600560831A53601060506839
:104010003861F8604FF0004078614FF050087869DF
:10402000044249D1002C47D0083414F0070F1FBFB9
:1040300004F1080004F00704041B14F0070F02D079
:1040400000F043F8FEE7002C36D0F868A04233D3E6
:104050003E68394601E0314606467068A04202D209
:1040600030680028F7D1B868864225D00A683068E1
:10407000086002F108097268121B112A0CD3311969
:1040800011F0070002D000F020F8FEE7301D0251C9
:104090007460084600F04EF87168F8683C69401A90
:1040A000F860FA687869A24288BF22463A61014303
:1040B0007160356009F00705FFF792FC15B100F05B
:1040C00004F8FEE74846BDE8F28388F31188BFF3A1
:1040D0004F8FBFF36F8F704738B5040022D0274D44
:1040E00054F8042C696950230A4202D100F01BF8ED
:1040F000FEE754F8080C10B100F015F8FEE722EACC
:10410000010144F8041CFFF763FCE96854F8040C4F
:104110004118E960A4F1080000F00CF8BDE8314056
:10412000FFF75EBC31BD83F31188BFF34F8FBFF340
:104130006F8F704730B511490A4600E01A46136880
:104140008342FBD35368D418844203D14068C31818
:104150005360104643681468C518A54208D18968A1
:104160008C4204D06168CB184360246800E00C46A0
:104170000460824218BF106030BD00008C01002036
:104180004FF0FF3200F1080182604160C16000F130
:10419000080202610021016070470021016170473F
:1041A00010B542684A6093688B6094686160916062
:1041B00008610168491C016010BD30B50A6812F140
:1041C000010F08BF036907D000F1080300E0234690
:1041D0005C682568AA42FAD25A684A6091608B608E
:1041E000596008610168491C016030BD436801697C
:1041F00082689A60836842685A604A68824204BF53
:1042000083684B60002202610868401E08600868ED
:10421000704700004908490040F8081C4FF08073BF
:104220000FF2110140F8043C40F80C1C40F8202D1E
:104230002038704754494A68502012F1010F80F32A
:104240001188BFF34F8FBFF36F8F00D0FEE7FEE7FB
:104250001CB54E490A780192FF230B700C788DF83B
:1042600000409DF80000484C00F0500020700720EE
:1042700005E09DF800205200401E8DF800209DF8BA
:1042800000201306F5D4424212F1030F03D0A060C0
:1042900000F01BF8FEE7000200F4E060A060019867
:1042A0000870D1F8202942F47002C1F82029D1F811
:1042B000200940F07040C1F8200900F06FFB002099
:1042C000606000F0B2FB002016BD502080F3118822
:1042D000BFF34F8FBFF36F8F7047502080F311886B
:1042E000BFF34F8FBFF36F8F27494A68521C012AD3
:1042F0004A600AD126490A68130606D080F311885D
:10430000BFF34F8FBFF36F8FFEE770471E494868BA
:1043100038B9502080F31188BFF34F8FBFF36F8FF0
:10432000FEE7401E486008BF80F31188704780B5E3
:10433000FFF7CBFFFFF7B8FB18B115494FF08050DE
:104340000860002282F3118801BD000010B5EFF370
:104350000580502110280C4A09D30E4B185C1478A4
:10436000A04204D281F31188FFF7B2FFFEE7906804
:10437000094A136803F4E063984204D281F3118878
:10438000FFF7A6FFFEE710BD0000002000E400E0FC
:1043900004ED00E0F0E300E00CED00E010B586B0C5
:1043A00000F056F9DFF8F842A068C0B1002105918D
:1043B000049103AA04A905A8FEF709F90598049930
:1043C00002900222009201910023039A0FF2D82159
:1043D0000FF26D00FFF798F90028E06005D1502139
:1043E00081F3118800F015F9FEE7012006B010BD39
:1043F000F8B5044684B01E46002014B900F006F952
:10440000FEE7DFF89C72BD68BDB1062900910192FC
:1044100002940CDAFFF7DDFC0228B86807BF0A9A9D
:10442000002300230022694600F090FB05E00023F2
:1044300032466946284600F024FC05B0F0BD000075
:10444000F8B586B0964D2968086810B90124002691
:1044500002E0C86806680024FFF7BAFA01A800F075
:1044600099F807460198002839D124BBB74227D3D1
:10447000FFF7B6FA2868C168CC68201DFFF7B6FEC2
:10448000E069012810D1A16933463A4689192046CE
:1044900000F0C4F840B10020009000233246002113
:1044A0002046FFF7A5FF18B1616A204688471FE044
:1044B00000F0ACF8FEE7686801684C1EA441E40F08
:1044C000A8682246F11B00F05FFDFFF789FA78B972
:1044D00074494FF08050086000F09BF808E0FFF747
:1044E0007FFA05E0034602460918204600F096F8D8
:1044F000A868002202A900F016FC0028A3D00298A8
:10450000002803D505990498039A9047029800283B
:10451000EED4049C606910B1201DFFF767FE01A86E
:1045200000F038F802990929E2D8DFE801F0151502
:1045300015050E061515050EDAE794F82C0000286F
:10454000D6D12046FFF7C8FDD2E70399A161002923
:10455000C8D100F05BF8FEE703990246A0690B465C
:104560004118204600F05AF80028C1D0616A204660
:104570008847E0690128BBD100210091039AA06916
:10458000821800232046FFF733FF0028B0D100F047
:104590003DF8FEE72DE9FC410446FFF780FA404E66
:1045A0000546306985420BD30020356120602846DE
:1045B000BDE8F68178603F61391D3068FFF7FDFD89
:1045C00031680868E8B1C868D0F80080C768381D4D
:1045D000FFF70CFE796A38468847F8690128EFD161
:1045E000B86940448045E5D300200090002342464E
:1045F00000213846FFF7FCFE0028E1D100F006F864
:10460000FEE77068306071600120CEE7502080F3D3
:104610001188BFF34F8FBFF36F8F704738B50024F9
:104620008A42416000611E4D06D38169D21A8A42D6
:1046300006D2011D686807E09A4203D2994201D36D
:10464000012403E0011D2868FFF7B7FD204632BDB5
:104650001CB5FFF742FE124CA068E0B904F114004B
:10466000FFF78EFD04F12800FFF78AFD04F1140026
:1046700004F12801002220606160009204F13C03F3
:1046800004F18C0210210A2000F01AFAA06010B187
:1046900007A100F065FCBDE81340FFF737BE00003E
:1046A0007833002004ED00E0546D722053766300EF
:1046B000546D72510000000070B505460026287C3C
:1046C00040B94FF4007300F03BF80122EA624FF466
:1046D000007305E0402300F033F80120E862402336
:1046E000022201212846FCF753FB0120C5F86C018A
:1046F0000823032282212846FCF74AFB0120286474
:104700004FF40770FCF786FB0400C5F8B84208BFF9
:10471000012613D0D5F8BC0201688847C4F814629A
:10472000C4F81862287CD4F8042200280CBF4FF487
:104730000073402301212846FCF762FB304670BD20
:10474000022281212846FCF723BB10B504468121B3
:10475000FCF729FB0022E26201212046FCF723FB43
:104760000020C4F86C0182212046FCF71CFB0021CC
:10477000D4F8B802216450B1D4F8BC02416888472B
:10478000D4F8B802FCF754FB0020C4F8B8020020AB
:1047900010BDF8B504460D46D4F8B86200218DF876
:1047A0000010ADF802100027297811F0600024D025
:1047B00020283FD1EA88CAB1687809060BD5D4F819
:1047C000BC32D3F808C03146E047EA88314620467B
:1047D000FDF782FC33E086F800023146E88886F86F
:1047E00001022046EA88FDF787FC28E0D4F8BC32B5
:1047F00068789C682946A04721E0687820B10A289B
:104800000AD00B2812D015E094F89C12032911D17C
:1048100002220DF1020105E094F89C02032809D15F
:10482000012269462046FDF757FC08E094F89C02F7
:10483000032804D029462046FDF720FC02273846ED
:10484000F2BDF8B50446D4F8B822D4F8C052DAB1B3
:104850000E46142070432718F86980B128235E4360
:10486000AB199B6BB0FBF3F503FB150038B90026C1
:10487000FE61002300222046FCF7BCFA02E0002380
:10488000C2F814320020F2BD0220F2BD38B5044651
:10489000D4F8B852FCF7BAFAC5F80C02D4F8B8024A
:1048A00048B1D4F8BC22D5F80402D36805F50371E9
:1048B0009847002032BD022032BD10B5D0F8BC327E
:1048C000D0F8B842002B1CBF94F80002FF2807D094
:1048D00094F801229B6821469847FF2084F8000243
:1048E000002010BD4321018006487047432101800C
:1048F0000548704743210180044870470A21018020
:1049000003487047A400002060000020E800002059
:104910001C0000200246022011B1C2F8BC12002087
:104920007047D0F8B802C0F80812C0F81022002072
:104930007047D0F8B802C0F804120020704780B564
:10494000D0F8B812A1B1D1F814227AB90123C1F874
:104950001432D1F810220263D1F81032D1F80822B3
:104960009BB28121FCF746FA002002BD012002BD66
:10497000022002BD80B5D0F8B81261B1D1F804228E
:10498000017C00290CBF4FF4007340230121FCF788
:1049900037FA002002BD022002BD00000748084B84
:1049A0000021016081604FF47A721968B1FBF2F264
:1049B000521E426007210160704700BF10E000E016
:1049C00018000020EFF30980BFF36F8F1D4B1A68AA
:1049D00020E9F00F106008B54FF0500080F3118807
:1049E000BFF34F8FBFF36F8FFFF7D3F84FF0000087
:1049F00080F31188BDE8084019680868B0E8F00F36
:104A000080F30988BFF36F8F70470E4B19680868F1
:104A1000B0E8F00F80F30988BFF36F8F4FF000000C
:104A200080F311884EF00D0E70470748006800684B
:104A300080F3088862B661B6BFF34F8FBFF36F8F04
:104A400000DF0000FC19002008ED00E038B504008C
:104A50000D4602D100F072F8FEE7FFF73EFCE26B74
:104A6000206C21684243881860600021A16320689F
:104A7000E26BA060521E206C216842438818E060FF
:104A80004FF0FF3084F8440084F8450065B9206990
:104A900090B100F0DEF978B1DFF8E4144FF0805007
:104AA000086000F0D1F907E004F11000FFF768FB9F
:104AB00004F12400FFF764FBFFF728FC012032BD5E
:104AC0007CB51C46502320B983F3118800F0BCF953
:104AD000FEE724B983F3118800F0B6F9FEE72AB1A6
:104AE00029B983F3118800F0AFF9FEE761B90093AB
:104AF000009E502E0DD1069B012584F8465000944F
:104B000000F00CF8204676BD83F3118800F09CF984
:104B1000FEE783F3118800F097F9FEE738B5049DAE
:104B200000290CBF2D602A60E86329641C4601211E
:104B30002846FFF78BFF85F84C4031BD502080F3AD
:104B40001188BFF34F8FBFF36F8F70472DE9F64782
:104B500082B004461E46502714B900F073F9FEE7F0
:104B60005FEA010A01D1206C60B9022E02D1E06B2C
:104B700001280AD1FFF72DF950B9039840B100F090
:104B800061F9FEE700F05EF9FEE700F05BF9FEE791
:104B900027460024DFF8E8834FF0805932E003987D
:104BA00000284FD014B900F048F90124FFF7AEFBFC
:104BB000FEF70EFFFFF791FB97F9440010F1010F8C
:104BC00004BF002187F8441097F9450010F1010F48
:104BD00004BF002187F84510FFF798FB00F04DF85F
:104BE000002844D1FFF779FBB86BF96B884214BFFA
:104BF00000250125FFF78AFB45BB384600F075F913
:104C0000FEF7EEFEFFF769FBB86BF96B884201D344
:104C1000022EC4D132465146384600F01EF9796A58
:104C200029B107F12400FFF70AF808B904E018B128
:104C3000C8F8009000F008F9FFF768FB012004B005
:104C4000BDE8F087FFF762FB0020F8E7039907F162
:104C50001000FEF7C8FF384600F047F9FEF7C0FE27
:104C60000028CFD1C8F8009000F0EEF8CAE7384627
:104C700000F03BF9FEF7B4FEE6E703A96846FFF74C
:104C80001FB82DE9F8430446884615461E465027AE
:104C900014B900F0D7F8FEE7B8F1000F01D1206C8D
:104CA00018BB022E02D1E06B012821D1FFF74EFB89
:104CB000EFF3118900F02DF801D3022E20D194F9E1
:104CC000457032464146204600F0C7F84FF0FF31AC
:104CD0008F4210D1606A88B100F017F8002818BF21
:104CE000002D0BD00120286008E000F0ABF8FEE7B3
:104CF00000F0A8F8FEE77F1C84F84570012000E072
:104D0000002089F31188BDE8F28304F12400FEF746
:104D100096BF87F31188BFF34F8FBFF36F8FA06BE0
:104D2000E16B884270472DE9F74306460F460024A1
:104D3000502526B985F3118800F086F8FEE70FB9F3
:104D4000306C48B9FFF745F878B9029868B185F337
:104D5000118800F079F8FEE785F3118800F074F807
:104D6000FEE700F06DF8FEF73BFEFFF7B6FAB56B15
:104D7000DFF80C82002D4FF0805935D102980028C1
:104D800048D014B900F059F80124FFF7BFFAFEF734
:104D90001FFEFFF7A2FA96F9440010F1010F04BFBD
:104DA000002186F8441096F9450010F1010F04BF68
:104DB000002186F84510FFF7A9FA02A9FFF75EFF68
:104DC000002830462AD100F0C0F80028C9D000F0F1
:104DD0002FF800F035F8FEF703FE0028C5D1C8F81B
:104DE000009000F031F8C0E73946304600F069F82D
:104DF0006D1EB563306940B106F11000FEF71FFF6C
:104E000018B1C8F8009000F01FF8FFF77FFA0120F2
:104E1000BDE8FE83FFF77AFA0020F9E700F065F8B5
:104E2000FEF7DEFD304600F090F800289DD0F3E755
:104E3000029906F12400FEF7D6BE6846FEF737BF9A
:104E4000304652E087F31188BFF34F8FBFF36F8F67
:104E5000704704F11000FEF7F2BEF8B5064615469D
:104E6000B46B326C002742B9306830BB7068FEF713
:104E7000C4FF0021074671601FE065B9B068FCF708
:104E8000BBFCB068316C726808449042B06014D3C7
:104E90003068B06011E0F068FCF7AEFC306CF1688F
:104EA00040420144F1603268914202D27168084484
:104EB000F060022D01D104B1641E641CB463384655
:104EC000F2BD026C002A0B4600D1704710B5C168D4
:104ED00044681144C160A14224BF0168C160C16837
:104EE000BDE810401846FCF787BC70B50446FFF7D4
:104EF000F4F994F9455005E0FFF707FF08B1FEF714
:104F000015FF6D1E68B2012802DB606A0028F3D12C
:104F10004FF0FF3584F84550FFF7F8F9FFF7DDF95A
:104F200094F9446005E0FFF794FF08B1FEF7FEFE38
:104F3000761E70B2012802DB20690028F3D184F8C4
:104F40004450BDE87040FFF7E1B910B50446FFF7E3
:104F5000C4F9A06B441EA441FFF7D8F9E00F10BDBF
:104F600010B50023074C54F833201AB15B1C082BF2
:104F7000F9D310BD44F8331004EBC301486010BDF1
:104F800004ED00E0C035002070B504460D4616461D
:104F9000FFF7A3F994F9440010F1010F04BF0021B9
:104FA00084F8441094F9450010F1010F04BF00216A
:104FB00084F84510FFF7AAF9A06B28B932462946B4
:104FC00004F12400FEF720FE2046BDE870408CE787
:104FD000122008801A48704704200880194870473A
:104FE0002DE9104000F028F827A004E02DE910403A
:104FF00000F022F827A02146FDF74BF8204610BD0F
:1050000038B51A20088010494C68086889680F4D27
:10501000081809D00822A91C00F022F8042205F182
:105020001201204600F01CF8284632BD2DE9104040
:1050300000F002F819A0DEE70A46054C70470000B0
:10504000580100206C010020E8F7FF1F70010020CC
:10505000F02200202DE91040FFF7EEFF12A0CAE772
:1050600030B500230CE0050F0A2D2CBF3735303545
:1050700001F8145001EB44040025000165705B1C2D
:10508000DCB29442EFD330BD414443205374616E8F
:1050900064000000546C757765730000434443203E
:1050A000436F6E666967000043444320496E746530
:1050B000726661636500000038B5184C184D002217
:1050C00005F57A712046FFF72CFC29462046FFF7AC
:1050D00030FC002032BD002070470020704710B522
:1050E00001460E4C2046FFF724FC2046FFF742FC09
:1050F000002010BD10B5094CD4F8B8320A46D3F8D8
:10510000141209B1012010BD01462046FFF709FC29
:105110002046BDE81040FFF712BC0000E029002047
:10512000A40D002070B500203221104C062242430D
:1051300022446D231370907101FB00F31D1215734F
:10514000A3F6B83301FB00F6401C1D1264289674C8
:1051500015769377EADB4FF47A70FDF708FA4FF48F
:1051600016712046FFF7C6FFF5E70000002F00206C
:10517000EC520008000000000000000000000000E9
:105180000000000000020000180000000000000005
:1051900000000000F85200080000000000000000BD
:1051A00000000000000000000002000008000000F5
:1051B000000000000000000030B4002512E050F8AC
:1051C000042BD30744BF4A44521E091F042942F846
:1051D000045BFAD213468C0744BF15809B1CC90799
:1051E00048BF1D7050F8041B0029E8D130BC70473F
:1051F000FEE7FEE7FEE7FEE7FEE770470448FEF73E
:10520000EFB80448FAF7EEBF0348FDF7DABD000037
:105210007C350020F0260020A434002010B507497A
:1052200079441831064C7C44163404E00A68081DA1
:10523000114488470146A142F8D110BD0800000082
:105240002400000075FFFFFF803400008C01002067
:105250000000000087B9FFFF54010000B601000004
:105260000000002000F00DF8002801D0FFF7D6FF65
:10527000AFF300800020AFF30080FCF769FC00F082
:1052800002F80120704700F001B8000007463846D8
:1052900000F002F8FBE7000080B5AFF30080024A9F
:1052A00011001820ABBEFBE72600020005480146AE
:1052B00003B4684680F30988AFF30080AFF3008041
:1052C000FFF7D0FFA5EDF5FE7047000000000000DD
:1052D0000000000001020304060708090148804796
:1052E00001480047C9520008AD5200086465666174
:1052F000756C745461736B005278547855534254F2
:1053000061736B000000000001020304FFF7FEBFA1
:10531000FFF7FEBFFFF7FEBFFFF7FEBFFFF7FEBFC1
:10532000FFF7FEBFFFF7FEBFFFF7FEBFFFF7FEBFB1
:10533000FFF7FEBFFFF7FEBFFFF7FEBFFFF7FEBFA1
:10534000FFF7FEBFFFF7FEBFFFF7FEBFFFF7FEBF91
:10535000FFF7FEBFFFF7FEBFFFF7FEBFFFF7FEBF81
:10536000FFF7FEBFFFF7FEBFFFF7FEBFFFF7FEBF71
:10537000FFF7FEBFFFF7FEBFFFF7FEBFFFF7FEBF61
:10538000FFF7FEBFFFF7FEBFFFF7FEBFFFF7FEBF51
:10539000FFF7FEBFFFF7FEBFFFF7FEBFFFF7FEBF41
:1053A000FFF7FEBFFFF7FEBFFFF7FEBF12000112BF
:1053B000AA01210843010001221008100524F4006D
:1053C0000A0600020B2240181007B94600084B4796
:1053D00000089304211F1003BB4800084304438DB9
:1053E0004810610112ED1012E50412F50412FD04DB
:1053F000100909024300020100C0320904611202CF
:105400000B101E05240010010524010001042402D4
:1054100002052406000107058203080010090401A3
:1054200000020A4E1002070501027B2001070581D8
:1054300007F22800442240072281072001000907C3
:1054400044F22C04441003B9500008D70412DB04C2
:1054500012DF041003D14F0008D90412ED0412E149
:1054600004120114122D04125504121243100602E4
:10547000020040830440577917020345F0050804F1
:075480000309041A030001F7
:04000005080052ADF0
:00000001FF
